{
  "contractName": "BStableToken",
  "abi": [
    {
      "inputs": [
        {
          "internalType": "string",
          "name": "_name",
          "type": "string"
        },
        {
          "internalType": "string",
          "name": "_symbol",
          "type": "string"
        }
      ],
      "stateMutability": "nonpayable",
      "type": "constructor"
    },
    {
      "anonymous": false,
      "inputs": [
        {
          "indexed": true,
          "internalType": "address",
          "name": "owner",
          "type": "address"
        },
        {
          "indexed": true,
          "internalType": "address",
          "name": "spender",
          "type": "address"
        },
        {
          "indexed": false,
          "internalType": "uint256",
          "name": "value",
          "type": "uint256"
        }
      ],
      "name": "Approval",
      "type": "event"
    },
    {
      "anonymous": false,
      "inputs": [
        {
          "indexed": true,
          "internalType": "address",
          "name": "previousOwner",
          "type": "address"
        },
        {
          "indexed": true,
          "internalType": "address",
          "name": "newOwner",
          "type": "address"
        }
      ],
      "name": "OwnershipTransferred",
      "type": "event"
    },
    {
      "anonymous": false,
      "inputs": [
        {
          "indexed": false,
          "internalType": "address",
          "name": "minter",
          "type": "address"
        }
      ],
      "name": "SetMinter",
      "type": "event"
    },
    {
      "anonymous": false,
      "inputs": [
        {
          "indexed": true,
          "internalType": "address",
          "name": "from",
          "type": "address"
        },
        {
          "indexed": true,
          "internalType": "address",
          "name": "to",
          "type": "address"
        },
        {
          "indexed": false,
          "internalType": "uint256",
          "name": "value",
          "type": "uint256"
        }
      ],
      "name": "Transfer",
      "type": "event"
    },
    {
      "anonymous": false,
      "inputs": [
        {
          "indexed": false,
          "internalType": "uint256",
          "name": "time",
          "type": "uint256"
        },
        {
          "indexed": false,
          "internalType": "uint256",
          "name": "rate",
          "type": "uint256"
        },
        {
          "indexed": false,
          "internalType": "uint256",
          "name": "supply",
          "type": "uint256"
        }
      ],
      "name": "UpdateMiningParameters",
      "type": "event"
    },
    {
      "inputs": [
        {
          "internalType": "address",
          "name": "owner",
          "type": "address"
        },
        {
          "internalType": "address",
          "name": "spender",
          "type": "address"
        }
      ],
      "name": "allowance",
      "outputs": [
        {
          "internalType": "uint256",
          "name": "",
          "type": "uint256"
        }
      ],
      "stateMutability": "view",
      "type": "function"
    },
    {
      "inputs": [
        {
          "internalType": "address",
          "name": "spender",
          "type": "address"
        },
        {
          "internalType": "uint256",
          "name": "amount",
          "type": "uint256"
        }
      ],
      "name": "approve",
      "outputs": [
        {
          "internalType": "bool",
          "name": "",
          "type": "bool"
        }
      ],
      "stateMutability": "nonpayable",
      "type": "function"
    },
    {
      "inputs": [
        {
          "internalType": "address",
          "name": "account",
          "type": "address"
        }
      ],
      "name": "balanceOf",
      "outputs": [
        {
          "internalType": "uint256",
          "name": "",
          "type": "uint256"
        }
      ],
      "stateMutability": "view",
      "type": "function"
    },
    {
      "inputs": [],
      "name": "decimals",
      "outputs": [
        {
          "internalType": "uint8",
          "name": "",
          "type": "uint8"
        }
      ],
      "stateMutability": "view",
      "type": "function"
    },
    {
      "inputs": [
        {
          "internalType": "address",
          "name": "spender",
          "type": "address"
        },
        {
          "internalType": "uint256",
          "name": "subtractedValue",
          "type": "uint256"
        }
      ],
      "name": "decreaseAllowance",
      "outputs": [
        {
          "internalType": "bool",
          "name": "",
          "type": "bool"
        }
      ],
      "stateMutability": "nonpayable",
      "type": "function"
    },
    {
      "inputs": [
        {
          "internalType": "address",
          "name": "spender",
          "type": "address"
        },
        {
          "internalType": "uint256",
          "name": "addedValue",
          "type": "uint256"
        }
      ],
      "name": "increaseAllowance",
      "outputs": [
        {
          "internalType": "bool",
          "name": "",
          "type": "bool"
        }
      ],
      "stateMutability": "nonpayable",
      "type": "function"
    },
    {
      "inputs": [],
      "name": "name",
      "outputs": [
        {
          "internalType": "string",
          "name": "",
          "type": "string"
        }
      ],
      "stateMutability": "view",
      "type": "function"
    },
    {
      "inputs": [],
      "name": "owner",
      "outputs": [
        {
          "internalType": "address",
          "name": "",
          "type": "address"
        }
      ],
      "stateMutability": "view",
      "type": "function"
    },
    {
      "inputs": [],
      "name": "renounceOwnership",
      "outputs": [],
      "stateMutability": "nonpayable",
      "type": "function"
    },
    {
      "inputs": [],
      "name": "symbol",
      "outputs": [
        {
          "internalType": "string",
          "name": "",
          "type": "string"
        }
      ],
      "stateMutability": "view",
      "type": "function"
    },
    {
      "inputs": [],
      "name": "totalSupply",
      "outputs": [
        {
          "internalType": "uint256",
          "name": "",
          "type": "uint256"
        }
      ],
      "stateMutability": "view",
      "type": "function"
    },
    {
      "inputs": [
        {
          "internalType": "address",
          "name": "recipient",
          "type": "address"
        },
        {
          "internalType": "uint256",
          "name": "amount",
          "type": "uint256"
        }
      ],
      "name": "transfer",
      "outputs": [
        {
          "internalType": "bool",
          "name": "",
          "type": "bool"
        }
      ],
      "stateMutability": "nonpayable",
      "type": "function"
    },
    {
      "inputs": [
        {
          "internalType": "address",
          "name": "sender",
          "type": "address"
        },
        {
          "internalType": "address",
          "name": "recipient",
          "type": "address"
        },
        {
          "internalType": "uint256",
          "name": "amount",
          "type": "uint256"
        }
      ],
      "name": "transferFrom",
      "outputs": [
        {
          "internalType": "bool",
          "name": "",
          "type": "bool"
        }
      ],
      "stateMutability": "nonpayable",
      "type": "function"
    },
    {
      "inputs": [
        {
          "internalType": "address",
          "name": "newOwner",
          "type": "address"
        }
      ],
      "name": "transferOwnership",
      "outputs": [],
      "stateMutability": "nonpayable",
      "type": "function"
    },
    {
      "inputs": [],
      "name": "getRate",
      "outputs": [
        {
          "internalType": "uint256",
          "name": "_rate",
          "type": "uint256"
        }
      ],
      "stateMutability": "view",
      "type": "function"
    },
    {
      "inputs": [],
      "name": "getMiningEpoch",
      "outputs": [
        {
          "internalType": "int128",
          "name": "r",
          "type": "int128"
        }
      ],
      "stateMutability": "view",
      "type": "function"
    },
    {
      "inputs": [],
      "name": "startEpochSupply",
      "outputs": [
        {
          "internalType": "uint256",
          "name": "_supply",
          "type": "uint256"
        }
      ],
      "stateMutability": "view",
      "type": "function"
    },
    {
      "inputs": [],
      "name": "startEpochTime",
      "outputs": [
        {
          "internalType": "uint256",
          "name": "_time",
          "type": "uint256"
        }
      ],
      "stateMutability": "view",
      "type": "function"
    },
    {
      "inputs": [],
      "name": "updateMiningParameters",
      "outputs": [],
      "stateMutability": "nonpayable",
      "type": "function"
    },
    {
      "inputs": [],
      "name": "startEpochTimeWrite",
      "outputs": [
        {
          "internalType": "uint256",
          "name": "_start_epoch_time",
          "type": "uint256"
        }
      ],
      "stateMutability": "nonpayable",
      "type": "function"
    },
    {
      "inputs": [],
      "name": "futureEpochTimeWrite",
      "outputs": [
        {
          "internalType": "uint256",
          "name": "result",
          "type": "uint256"
        }
      ],
      "stateMutability": "nonpayable",
      "type": "function"
    },
    {
      "inputs": [],
      "name": "availableSupply",
      "outputs": [
        {
          "internalType": "uint256",
          "name": "result",
          "type": "uint256"
        }
      ],
      "stateMutability": "view",
      "type": "function"
    },
    {
      "inputs": [
        {
          "internalType": "uint256",
          "name": "start",
          "type": "uint256"
        },
        {
          "internalType": "uint256",
          "name": "end",
          "type": "uint256"
        }
      ],
      "name": "mintableInTimeframe",
      "outputs": [
        {
          "internalType": "uint256",
          "name": "to_mint",
          "type": "uint256"
        }
      ],
      "stateMutability": "view",
      "type": "function"
    },
    {
      "inputs": [
        {
          "internalType": "address",
          "name": "_minter",
          "type": "address"
        }
      ],
      "name": "setMinter",
      "outputs": [],
      "stateMutability": "nonpayable",
      "type": "function"
    },
    {
      "inputs": [
        {
          "internalType": "address",
          "name": "_minter",
          "type": "address"
        }
      ],
      "name": "transferMinterTo",
      "outputs": [],
      "stateMutability": "nonpayable",
      "type": "function"
    },
    {
      "inputs": [],
      "name": "getMinter",
      "outputs": [
        {
          "internalType": "address",
          "name": "_minter",
          "type": "address"
        }
      ],
      "stateMutability": "view",
      "type": "function"
    },
    {
      "inputs": [
        {
          "internalType": "address",
          "name": "_to",
          "type": "address"
        },
        {
          "internalType": "uint256",
          "name": "_value",
          "type": "uint256"
        }
      ],
      "name": "mint",
      "outputs": [
        {
          "internalType": "bool",
          "name": "r",
          "type": "bool"
        }
      ],
      "stateMutability": "nonpayable",
      "type": "function"
    }
  ],
  "bytecode": "0x60806040526200002361016d620151806200036e60201b620016111790919060201c565b6007556200004c670de0b6b3a76400006302625a006200036e60201b620016111790919060201c565b600855620000906007546200007c670de0b6b3a764000063012353ce6200036e60201b620016111790919060201c565b620003d560201b6200166a1790919060201c565b600955600754600a55671080e992061ab300600b5562015180600c55348015620000b957600080fd5b50604051620022473803806200224783398181016040526040811015620000df57600080fd5b81019080805160405193929190846401000000008211156200010057600080fd5b9083019060208201858111156200011657600080fd5b82516401000000008111828201881017156200013157600080fd5b82525081516020918201929091019080838360005b838110156200016057818101518382015260200162000146565b50505050905090810190601f1680156200018e5780820380516001836020036101000a031916815260200191505b5060405260200180516040519392919084640100000000821115620001b257600080fd5b908301906020820185811115620001c857600080fd5b8251640100000000811182820188101715620001e357600080fd5b82525081516020918201929091019080838360005b8381101562000212578181015183820152602001620001f8565b50505050905090810190601f168015620002405780820380516001836020036101000a031916815260200191505b506040525050825183915082906200026090600390602085019062000802565b5080516200027690600490602084019062000802565b50506005805460ff191660121790555060006200029b6001600160e01b036200041f16565b60058054610100600160a81b0319166101006001600160a01b038416908102919091179091556040519192509060009060008051602062002227833981519152908290a350620002f4336001600160e01b036200042416565b62000308336008546200053c60201b60201c565b6200033f600a546200032b600c54426200065460201b6200137c1790919060201c565b620006af60201b620016ac1790919060201c565b600e555050600d80546001600160801b0319166001600160801b031790556000600f55600854601055620008a4565b6000826200037f57506000620003cf565b828202828482816200038d57fe5b0414620003cc5760405162461bcd60e51b8152600401808060200182810382526021815260200180620022066021913960400191505060405180910390fd5b90505b92915050565b6000620003cc83836040518060400160405280601a81526020017f536166654d6174683a206469766973696f6e206279207a65726f000000000000815250620006f960201b60201c565b335b90565b620004376001600160e01b036200041f16565b60055461010090046001600160a01b039081169116146200049f576040805162461bcd60e51b815260206004820181905260248201527f4f776e61626c653a2063616c6c6572206973206e6f7420746865206f776e6572604482015290519081900360640190fd5b6001600160a01b038116620004e65760405162461bcd60e51b8152600401808060200182810382526026815260200180620021e06026913960400191505060405180910390fd5b6005546040516001600160a01b0380841692610100900416906000805160206200222783398151915290600090a3600580546001600160a01b0390921661010002610100600160a81b0319909216919091179055565b6001600160a01b03821662000598576040805162461bcd60e51b815260206004820152601f60248201527f42455032303a206d696e7420746f20746865207a65726f206164647265737300604482015290519081900360640190fd5b620005af600083836001600160e01b03620007a016565b620005cb816002546200065460201b6200137c1790919060201c565b6002556001600160a01b03821660009081526020818152604090912054620005fe9183906200137c62000654821b17901c565b6001600160a01b0383166000818152602081815260408083209490945583518581529351929391927fddf252ad1be2c89b69c2b068fc378daa952ba7f163c4a11628f55a4df523b3ef9281900390910190a35050565b600082820183811015620003cc576040805162461bcd60e51b815260206004820152601b60248201527f536166654d6174683a206164646974696f6e206f766572666c6f770000000000604482015290519081900360640190fd5b6000620003cc83836040518060400160405280601e81526020017f536166654d6174683a207375627472616374696f6e206f766572666c6f770000815250620007a560201b60201c565b60008183620007895760405162461bcd60e51b81526004018080602001828103825283818151815260200191508051906020019080838360005b838110156200074d57818101518382015260200162000733565b50505050905090810190601f1680156200077b5780820380516001836020036101000a031916815260200191505b509250505060405180910390fd5b5060008385816200079657fe5b0495945050505050565b505050565b60008184841115620007fa5760405162461bcd60e51b81526020600482018181528351602484015283519092839260449091019190850190808383600083156200074d57818101518382015260200162000733565b505050900390565b828054600181600116156101000203166002900490600052602060002090601f016020900481019282601f106200084557805160ff191683800117855562000875565b8280016001018555821562000875579182015b828111156200087557825182559160200191906001019062000858565b506200088392915062000887565b5090565b6200042191905b808211156200088357600081556001016200088e565b61192c80620008b46000396000f3fe608060405234801561001057600080fd5b50600436106101a95760003560e01c8063715018a6116100f9578063c3b03fa811610097578063dd62ed3e11610071578063dd62ed3e14610487578063f2fde38b146104b5578063f3667517146104db578063fca3b5aa146104e3576101a9565b8063c3b03fa814610454578063cb626ae214610477578063dd5fbc9a1461047f576101a9565b806395d89b41116100d357806395d89b41146103ec578063a228bced146103f4578063a457c2d7146103fc578063a9059cbb14610428576101a9565b8063715018a6146103b85780637ecc2b56146103c05780638da5cb5b146103c8576101a9565b8063277dbafb1161016657806340c10f191161014057806340c10f191461033657806360cb381414610362578063679aefce1461038a57806370a0823114610392576101a9565b8063277dbafb146102e4578063313ce567146102ec578063395093511461030a576101a9565b806306fdde03146101ae578063087905c91461022b578063095ea7b31461024c5780631814a5b11461028c57806318160ddd146102a657806323b872dd146102ae575b600080fd5b6101b6610509565b6040805160208082528351818301528351919283929083019185019080838360005b838110156101f05781810151838201526020016101d8565b50505050905090810190601f16801561021d5780820380516001836020036101000a031916815260200191505b509250505060405180910390f35b61023361059f565b60408051600f92830b90920b8252519081900360200190f35b6102786004803603604081101561026257600080fd5b506001600160a01b0381351690602001356105a8565b604080519115158252519081900360200190f35b6102946105c6565b60408051918252519081900360200190f35b6102946105cc565b610278600480360360608110156102c457600080fd5b506001600160a01b038135811691602081013590911690604001356105d2565b61029461065f565b6102f46106bf565b6040805160ff9092168252519081900360200190f35b6102786004803603604081101561032057600080fd5b506001600160a01b0381351690602001356106c8565b6102786004803603604081101561034c57600080fd5b506001600160a01b03813516906020013561071c565b6103886004803603602081101561037857600080fd5b50356001600160a01b031661087a565b005b610294610988565b610294600480360360208110156103a857600080fd5b50356001600160a01b031661098e565b6103886109a9565b610294610a68565b6103d0610a77565b604080516001600160a01b039092168252519081900360200190f35b6101b6610a8b565b610294610aec565b6102786004803603604081101561041257600080fd5b506001600160a01b038135169060200135610b1a565b6102786004803603604081101561043e57600080fd5b506001600160a01b038135169060200135610b88565b6102946004803603604081101561046a57600080fd5b5080359060200135610b9c565b610388610e16565b610294610e7c565b6102946004803603604081101561049d57600080fd5b506001600160a01b0381358116916020013516610e82565b610388600480360360208110156104cb57600080fd5b50356001600160a01b0316610ead565b6103d0610fc8565b610388600480360360208110156104f957600080fd5b50356001600160a01b0316610fd7565b60038054604080516020601f60026000196101006001881615020190951694909404938401819004810282018101909252828152606093909290918301828280156105955780601f1061056a57610100808354040283529160200191610595565b820191906000526020600020905b81548152906001019060200180831161057857829003601f168201915b5050505050905090565b600d54600f0b90565b60006105bc6105b561108e565b8484611092565b5060015b92915050565b600e5490565b60025490565b60006105df84848461117e565b610655846105eb61108e565b610650856040518060600160405280602881526020016117ec602891396001600160a01b038a1660009081526001602052604081209061062961108e565b6001600160a01b03168152602081019190915260400160002054919063ffffffff6112e516565b611092565b5060019392505050565b600e54600a546000919061067a90829063ffffffff61137c16565b42106106a4576106886113dd565b600a54600e5461069d9163ffffffff61137c16565b91506106bb565b600a546106b890829063ffffffff61137c16565b91505b5090565b60055460ff1690565b60006105bc6106d561108e565b8461065085600160006106e661108e565b6001600160a01b03908116825260208083019390935260409182016000908120918c16815292529020549063ffffffff61137c16565b600d546000906004600f91820b90910b1215610871576006546001600160a01b03163314610786576040805162461bcd60e51b815260206004820152601260248201527123206465763a206d696e746572206f6e6c7960701b604482015290519081900360640190fd5b6001600160a01b0383166107d8576040805162461bcd60e51b81526020600482015260146024820152732023206465763a207a65726f206164647265737360601b604482015290519081900360640190fd5b600a54600e546107ed9163ffffffff61137c16565b42106107fb576107fb6113dd565b6000610815836108096105cc565b9063ffffffff61137c16565b905061081f6114da565b81111561085d5760405162461bcd60e51b81526004018080602001828103825260248152602001806117596024913960400191505060405180910390fd5b6108678484611515565b60019150506105c0565b50600092915050565b6006546001600160a01b031633146108d9576040805162461bcd60e51b815260206004820152601f60248201527f6f6e6c79206d696e7465722063616e207472616e73666572206d696e74657200604482015290519081900360640190fd5b6001600160a01b038116610934576040805162461bcd60e51b815260206004820152601a60248201527f616464726573732830292063616e2774206265206d696e746572000000000000604482015290519081900360640190fd5b600680546001600160a01b0383166001600160a01b0319909116811790915560408051918252517fcec52196e972044edde8689a1b608e459c5946b7f3e5c8cd3d6d8e126d422e1c9181900360200190a150565b600f5490565b6001600160a01b031660009081526020819052604090205490565b6109b161108e565b60055461010090046001600160a01b03908116911614610a18576040805162461bcd60e51b815260206004820181905260248201527f4f776e61626c653a2063616c6c6572206973206e6f7420746865206f776e6572604482015290519081900360640190fd5b60055460405160009161010090046001600160a01b0316907f8be0079c531659141344cd1fd0a4f28419497f9722a3daafe3b4186f6b6457e0908390a360058054610100600160a81b0319169055565b6000610a726114da565b905090565b60055461010090046001600160a01b031690565b60048054604080516020601f60026000196101006001881615020190951694909404938401819004810282018101909252828152606093909290918301828280156105955780601f1061056a57610100808354040283529160200191610595565b6000610b05600a54600e5461137c90919063ffffffff16565b4210610b1357610b136113dd565b50600e5490565b60006105bc610b2761108e565b84610650856040518060600160405280602581526020016118b06025913960016000610b5161108e565b6001600160a01b03908116825260208083019390935260409182016000908120918d1681529252902054919063ffffffff6112e516565b60006105bc610b9561108e565b848461117e565b600081831115610be8576040805162461bcd60e51b815260206004820152601260248201527108c819195d8e881cdd185c9d080f88195b9960721b604482015290519081900360640190fd5b50600e54600f54600a546000929190610c0890839063ffffffff61137c16565b841115610c5457600a54610c2390839063ffffffff61137c16565b600b54909250610c5190610c4583670de0b6b3a764000063ffffffff61161116565b9063ffffffff61166a16565b90505b600a54610c6890839063ffffffff61137c16565b841115610cbc576040805162461bcd60e51b815260206004820152601860248201527f23206465763a20746f6f2066617220696e206675747572650000000000000000604482015290519081900360640190fd5b60005b6103e8811015610e0d57828510610d7557600a548590610ce690859063ffffffff61137c16565b811115610d0457600a54610d0190859063ffffffff61137c16565b90505b600a548790610d1a90869063ffffffff61137c16565b8110610d27575050610e0d565b84811015610d325750835b610d62610d55610d48848463ffffffff6116ac16565b869063ffffffff61161116565b879063ffffffff61137c16565b9550848810610d72575050610e0d565b50505b600a54610d8990849063ffffffff6116ac16565b9250610dac670de0b6b3a7640000610c45600b548561161190919063ffffffff16565b9150600954821115610e05576040805162461bcd60e51b815260206004820152601c60248201527f20202320546869732073686f756c64206e657665722068617070656e00000000604482015290519081900360640190fd5b600101610cbf565b50505092915050565b600a54600e54610e2b9163ffffffff61137c16565b421015610e72576040805162461bcd60e51b815260206004820152601060248201526f23206465763a20746f6f20736f6f6e2160801b604482015290519081900360640190fd5b610e7a6113dd565b565b60105490565b6001600160a01b03918216600090815260016020908152604080832093909416825291909152205490565b610eb561108e565b60055461010090046001600160a01b03908116911614610f1c576040805162461bcd60e51b815260206004820181905260248201527f4f776e61626c653a2063616c6c6572206973206e6f7420746865206f776e6572604482015290519081900360640190fd5b6001600160a01b038116610f615760405162461bcd60e51b81526004018080602001828103825260268152602001806117c66026913960400191505060405180910390fd5b6005546040516001600160a01b0380841692610100900416907f8be0079c531659141344cd1fd0a4f28419497f9722a3daafe3b4186f6b6457e090600090a3600580546001600160a01b0390921661010002610100600160a81b0319909216919091179055565b6006546001600160a01b031690565b610fdf61108e565b60055461010090046001600160a01b03908116911614611046576040805162461bcd60e51b815260206004820181905260248201527f4f776e61626c653a2063616c6c6572206973206e6f7420746865206f776e6572604482015290519081900360640190fd5b6006546001600160a01b0316156108d95760405162461bcd60e51b81526004018080602001828103825260328152602001806118146032913960400191505060405180910390fd5b3390565b6001600160a01b0383166110d75760405162461bcd60e51b81526004018080602001828103825260248152602001806117a26024913960400191505060405180910390fd5b6001600160a01b03821661111c5760405162461bcd60e51b81526004018080602001828103825260228152602001806118d56022913960400191505060405180910390fd5b6001600160a01b03808416600081815260016020908152604080832094871680845294825291829020859055815185815291517f8c5be1e5ebec7d5bd14f71427d1e84f3dd0314c0f7b2291e5b200ac8c7c3b9259281900390910190a3505050565b6001600160a01b0383166111c35760405162461bcd60e51b815260040180806020018281038252602581526020018061177d6025913960400191505060405180910390fd5b6001600160a01b0382166112085760405162461bcd60e51b815260040180806020018281038252602381526020018061188d6023913960400191505060405180910390fd5b6112138383836116ee565b61125681604051806060016040528060268152602001611867602691396001600160a01b038616600090815260208190526040902054919063ffffffff6112e516565b6001600160a01b03808516600090815260208190526040808220939093559084168152205461128b908263ffffffff61137c16565b6001600160a01b038084166000818152602081815260409182902094909455805185815290519193928716927fddf252ad1be2c89b69c2b068fc378daa952ba7f163c4a11628f55a4df523b3ef92918290030190a3505050565b600081848411156113745760405162461bcd60e51b81526004018080602001828103825283818151815260200191508051906020019080838360005b83811015611339578181015183820152602001611321565b50505050905090810190601f1680156113665780820380516001836020036101000a031916815260200191505b509250505060405180910390fd5b505050900390565b6000828201838110156113d6576040805162461bcd60e51b815260206004820152601b60248201527f536166654d6174683a206164646974696f6e206f766572666c6f770000000000604482015290519081900360640190fd5b9392505050565b600f54601054600a54600e546113f89163ffffffff61137c16565b600e55600d8054600f81810b600101900b6fffffffffffffffffffffffffffffffff166fffffffffffffffffffffffffffffffff1990911617905581611442576009549150611491565b61146761145a600a548461161190919063ffffffff16565b829063ffffffff61137c16565b6010819055600b5490915061148e90610c4584670de0b6b3a764000063ffffffff61161116565b91505b600f829055604080514281526020810184905280820183905290517f27e46362a1e6129b6dd539c984ce739291a97128dfcaeca1255e8ac83abd94419181900360600190a15050565b6000610a72611506600f546114fa600e54426116ac90919063ffffffff16565b9063ffffffff61161116565b6010549063ffffffff61137c16565b6001600160a01b038216611570576040805162461bcd60e51b815260206004820152601f60248201527f42455032303a206d696e7420746f20746865207a65726f206164647265737300604482015290519081900360640190fd5b61157c600083836116ee565b60025461158f908263ffffffff61137c16565b6002556001600160a01b0382166000908152602081905260409020546115bb908263ffffffff61137c16565b6001600160a01b0383166000818152602081815260408083209490945583518581529351929391927fddf252ad1be2c89b69c2b068fc378daa952ba7f163c4a11628f55a4df523b3ef9281900390910190a35050565b600082611620575060006105c0565b8282028284828161162d57fe5b04146113d65760405162461bcd60e51b81526004018080602001828103825260218152602001806118466021913960400191505060405180910390fd5b60006113d683836040518060400160405280601a81526020017f536166654d6174683a206469766973696f6e206279207a65726f0000000000008152506116f3565b60006113d683836040518060400160405280601e81526020017f536166654d6174683a207375627472616374696f6e206f766572666c6f7700008152506112e5565b505050565b600081836117425760405162461bcd60e51b8152602060048201818152835160248401528351909283926044909101919085019080838360008315611339578181015183820152602001611321565b50600083858161174e57fe5b049594505050505056fe23206465763a206578636565647320616c6c6f7761626c65206d696e7420616d6f756e7442455032303a207472616e736665722066726f6d20746865207a65726f206164647265737342455032303a20617070726f76652066726f6d20746865207a65726f20616464726573734f776e61626c653a206e6577206f776e657220697320746865207a65726f206164647265737342455032303a207472616e7366657220616d6f756e74206578636565647320616c6c6f77616e6365202023206465763a2063616e2073657420746865206d696e746572206f6e6c79206f6e63652c206174206372656174696f6e536166654d6174683a206d756c7469706c69636174696f6e206f766572666c6f7742455032303a207472616e7366657220616d6f756e7420657863656564732062616c616e636542455032303a207472616e7366657220746f20746865207a65726f206164647265737342455032303a2064656372656173656420616c6c6f77616e63652062656c6f77207a65726f42455032303a20617070726f766520746f20746865207a65726f2061646472657373a2646970667358221220848c608010479d4aee5d9d878bac3e8bb687b71c89839a0d65f627ead01e6ca264736f6c634300060600334f776e61626c653a206e6577206f776e657220697320746865207a65726f2061646472657373536166654d6174683a206d756c7469706c69636174696f6e206f766572666c6f778be0079c531659141344cd1fd0a4f28419497f9722a3daafe3b4186f6b6457e0",
  "immutableReferences": {},
  "source": "pragma solidity ^0.6.0;\n\nimport \"./BEP20.sol\";\nimport \"./interfaces/IBStableToken.sol\";\nimport \"@openzeppelin/contracts/access/Ownable.sol\";\n\n// BStable DAO Token\n// All data's decimal is 18.\ncontract BStableToken is IBStableToken, BEP20, Ownable {\n    using SafeMath for uint256;\n    address minter;\n\n    uint256 YEAR = uint256(86400).mul(365);\n    uint256 INITIAL_SUPPLY = uint256(40_000_000).mul(10**18);\n    uint256 INITIAL_RATE = uint256(19_092_430).mul(10**18).div(YEAR);\n    uint256 RATE_REDUCTION_TIME = YEAR;\n    uint256 RATE_REDUCTION_COEFFICIENT = 1189207115002721024;\n    uint256 INFLATION_DELAY = 86400;\n\n    int128 mining_epoch;\n    uint256 start_epoch_time;\n    uint256 rate;\n\n    uint256 start_epoch_supply;\n\n    event UpdateMiningParameters(uint256 time, uint256 rate, uint256 supply);\n\n    event SetMinter(address minter);\n\n    constructor(string memory _name, string memory _symbol)\n        public\n        BEP20(_name, _symbol)\n    {\n        transferOwnership(msg.sender);\n        _mint(msg.sender, INITIAL_SUPPLY);\n        start_epoch_time = block.timestamp.add(INFLATION_DELAY).sub(\n            RATE_REDUCTION_TIME\n        );\n        mining_epoch = -1;\n        rate = 0;\n        start_epoch_supply = INITIAL_SUPPLY;\n    }\n\n    function getRate() public view returns (uint256 _rate) {\n        _rate = rate;\n    }\n\n    function getMiningEpoch() public view returns (int128 r) {\n        r = mining_epoch;\n    }\n\n    function startEpochSupply() public view returns (uint256 _supply) {\n        _supply = start_epoch_supply;\n    }\n\n    function startEpochTime() public view returns (uint256 _time) {\n        _time = start_epoch_time;\n    }\n\n    function _updateMiningParameters() internal {\n        uint256 _rate = rate;\n        uint256 _start_epoch_supply = start_epoch_supply;\n\n        start_epoch_time = start_epoch_time.add(RATE_REDUCTION_TIME);\n        mining_epoch = mining_epoch + 1;\n\n        if (_rate == 0) {\n            _rate = INITIAL_RATE;\n        } else {\n            _start_epoch_supply = _start_epoch_supply.add(\n                _rate.mul(RATE_REDUCTION_TIME)\n            );\n            start_epoch_supply = _start_epoch_supply;\n            _rate = _rate.mul(10**18).div(RATE_REDUCTION_COEFFICIENT);\n        }\n        rate = _rate;\n        emit UpdateMiningParameters(\n            block.timestamp,\n            _rate,\n            _start_epoch_supply\n        );\n    }\n\n    function updateMiningParameters() external {\n        require(\n            block.timestamp >= start_epoch_time.add(RATE_REDUCTION_TIME),\n            \"# dev: too soon!\"\n        );\n        _updateMiningParameters();\n    }\n\n    function startEpochTimeWrite()\n        external\n        returns (uint256 _start_epoch_time)\n    {\n        if (block.timestamp >= start_epoch_time.add(RATE_REDUCTION_TIME)) {\n            _updateMiningParameters();\n        }\n        _start_epoch_time = start_epoch_time;\n    }\n\n    function futureEpochTimeWrite() external returns (uint256 result) {\n        uint256 _start_epoch_time = start_epoch_time;\n        if (block.timestamp >= _start_epoch_time.add(RATE_REDUCTION_TIME)) {\n            _updateMiningParameters();\n            result = start_epoch_time.add(RATE_REDUCTION_TIME);\n        } else {\n            result = _start_epoch_time.add(RATE_REDUCTION_TIME);\n        }\n    }\n\n    function _availableSupply() internal view returns (uint256 result) {\n        result = start_epoch_supply.add(\n            block.timestamp.sub(start_epoch_time).mul(rate)\n        );\n    }\n\n    function availableSupply() external view override returns (uint256 result) {\n        result = _availableSupply();\n    }\n\n    function mintableInTimeframe(uint256 start, uint256 end)\n        external\n        view\n        returns (uint256 to_mint)\n    {\n        require(start <= end, \"# dev: start > end\");\n        to_mint = 0;\n        uint256 current_epoch_time = start_epoch_time;\n        uint256 current_rate = rate;\n        if (end > current_epoch_time.add(RATE_REDUCTION_TIME)) {\n            current_epoch_time = current_epoch_time.add(RATE_REDUCTION_TIME);\n            current_rate = current_rate.mul(10**18).div(\n                RATE_REDUCTION_COEFFICIENT\n            );\n        }\n\n        require(\n            end <= current_epoch_time.add(RATE_REDUCTION_TIME),\n            \"# dev: too far in future\"\n        );\n\n        for (uint256 i = 0; i < 1000; i++) {\n            if (end >= current_epoch_time) {\n                uint256 current_end = end;\n                if (current_end > current_epoch_time.add(RATE_REDUCTION_TIME)) {\n                    current_end = current_epoch_time.add(RATE_REDUCTION_TIME);\n                }\n                uint256 current_start = start;\n                if (\n                    current_start >= current_epoch_time.add(RATE_REDUCTION_TIME)\n                ) {\n                    break;\n                } else if (current_start < current_epoch_time) {\n                    current_start = current_epoch_time;\n                }\n                to_mint = to_mint.add(\n                    current_rate.mul(current_end.sub(current_start))\n                );\n                if (start >= current_epoch_time) {\n                    break;\n                }\n            }\n\n            current_epoch_time = current_epoch_time.sub(RATE_REDUCTION_TIME);\n            current_rate = current_rate.mul(RATE_REDUCTION_COEFFICIENT).div(\n                10**18\n            );\n            require(\n                current_rate <= INITIAL_RATE,\n                \"  # This should never happen\"\n            );\n        }\n    }\n\n    function setMinter(address _minter) external onlyOwner {\n        require(\n            minter == address(0),\n            \"  # dev: can set the minter only once, at creation\"\n        );\n        require(_minter != address(0), \"address(0) can't be minter\");\n        minter = _minter;\n        emit SetMinter(_minter);\n    }\n\n    function transferMinterTo(address _minter) external override {\n        require(msg.sender == minter, \"only minter can transfer minter\");\n        require(_minter != address(0), \"address(0) can't be minter\");\n        minter = _minter;\n        emit SetMinter(_minter);\n    }\n\n    function getMinter() external view override returns (address _minter) {\n        _minter = minter;\n    }\n\n    function mint(address _to, uint256 _value)\n        external\n        override\n        returns (bool r)\n    {\n        if (mining_epoch < 4) {\n            require(msg.sender == minter, \"# dev: minter only\");\n            require(_to != address(0), \" # dev: zero address\");\n\n            if (block.timestamp >= start_epoch_time.add(RATE_REDUCTION_TIME)) {\n                _updateMiningParameters();\n            }\n            uint256 _total_supply = totalSupply().add(_value);\n            require(\n                _total_supply <= _availableSupply(),\n                \"# dev: exceeds allowable mint amount\"\n            );\n            _mint(_to, _value);\n            r = true;\n        } else {\n            r = false;\n        }\n    }\n}\n",
  "sourcePath": "/Users/admin/github.com/holynull/OKExChain-contracts/contracts/BStableToken.sol",
  "compiler": {
    "name": "solc",
    "version": "0.6.6+commit.6c089d02.Emscripten.clang"
  },
  "schemaVersion": "3.3.3",
  "updatedAt": "2021-01-06T08:24:08.066Z",
  "devdoc": {
    "methods": {
      "allowance(address,address)": {
        "details": "See {IBEP20-allowance}."
      },
      "approve(address,uint256)": {
        "details": "See {IBEP20-approve}.     * Requirements:     * - `spender` cannot be the zero address."
      },
      "balanceOf(address)": {
        "details": "See {IBEP20-balanceOf}."
      },
      "decimals()": {
        "details": "Returns the number of decimals used to get its user representation. For example, if `decimals` equals `2`, a balance of `505` tokens should be displayed to a user as `5,05` (`505 / 10 ** 2`).     * Tokens usually opt for a value of 18, imitating the relationship between Ether and Wei. This is the value {BEP20} uses, unless {_setupDecimals} is called.     * NOTE: This information is only used for _display_ purposes: it in no way affects any of the arithmetic of the contract, including {IBEP20-balanceOf} and {IBEP20-transfer}."
      },
      "decreaseAllowance(address,uint256)": {
        "details": "Atomically decreases the allowance granted to `spender` by the caller.     * This is an alternative to {approve} that can be used as a mitigation for problems described in {IBEP20-approve}.     * Emits an {Approval} event indicating the updated allowance.     * Requirements:     * - `spender` cannot be the zero address. - `spender` must have allowance for the caller of at least `subtractedValue`."
      },
      "increaseAllowance(address,uint256)": {
        "details": "Atomically increases the allowance granted to `spender` by the caller.     * This is an alternative to {approve} that can be used as a mitigation for problems described in {IBEP20-approve}.     * Emits an {Approval} event indicating the updated allowance.     * Requirements:     * - `spender` cannot be the zero address."
      },
      "name()": {
        "details": "Returns the name of the token."
      },
      "owner()": {
        "details": "Returns the address of the current owner."
      },
      "renounceOwnership()": {
        "details": "Leaves the contract without owner. It will not be possible to call `onlyOwner` functions anymore. Can only be called by the current owner.     * NOTE: Renouncing ownership will leave the contract without an owner, thereby removing any functionality that is only available to the owner."
      },
      "symbol()": {
        "details": "Returns the symbol of the token, usually a shorter version of the name."
      },
      "totalSupply()": {
        "details": "See {IBEP20-totalSupply}."
      },
      "transfer(address,uint256)": {
        "details": "See {IBEP20-transfer}.     * Requirements:     * - `recipient` cannot be the zero address. - the caller must have a balance of at least `amount`."
      },
      "transferFrom(address,address,uint256)": {
        "details": "See {IBEP20-transferFrom}.     * Emits an {Approval} event indicating the updated allowance. This is not required by the EIP. See the note at the beginning of {BEP20};     * Requirements: - `sender` and `recipient` cannot be the zero address. - `sender` must have a balance of at least `amount`. - the caller must have allowance for ``sender``'s tokens of at least `amount`."
      },
      "transferOwnership(address)": {
        "details": "Transfers ownership of the contract to a new account (`newOwner`). Can only be called by the current owner."
      }
    }
  },
  "userdoc": {
    "methods": {}
  }
}