{
  "contractName": "BStableProxy",
  "abi": [
    {
      "inputs": [
        {
          "internalType": "string",
          "name": "_name",
          "type": "string"
        },
        {
          "internalType": "string",
          "name": "_symbol",
          "type": "string"
        },
        {
          "internalType": "address",
          "name": "_tokenAddress",
          "type": "address"
        }
      ],
      "stateMutability": "nonpayable",
      "type": "constructor"
    },
    {
      "anonymous": false,
      "inputs": [
        {
          "indexed": true,
          "internalType": "address",
          "name": "owner",
          "type": "address"
        },
        {
          "indexed": true,
          "internalType": "address",
          "name": "spender",
          "type": "address"
        },
        {
          "indexed": false,
          "internalType": "uint256",
          "name": "value",
          "type": "uint256"
        }
      ],
      "name": "Approval",
      "type": "event"
    },
    {
      "anonymous": false,
      "inputs": [
        {
          "indexed": true,
          "internalType": "address",
          "name": "user",
          "type": "address"
        },
        {
          "indexed": true,
          "internalType": "uint256",
          "name": "pid",
          "type": "uint256"
        },
        {
          "indexed": false,
          "internalType": "uint256",
          "name": "amount",
          "type": "uint256"
        }
      ],
      "name": "Deposit",
      "type": "event"
    },
    {
      "anonymous": false,
      "inputs": [
        {
          "indexed": true,
          "internalType": "address",
          "name": "user",
          "type": "address"
        },
        {
          "indexed": true,
          "internalType": "uint256",
          "name": "pid",
          "type": "uint256"
        },
        {
          "indexed": false,
          "internalType": "uint256",
          "name": "amount",
          "type": "uint256"
        }
      ],
      "name": "EmergencyWithdraw",
      "type": "event"
    },
    {
      "anonymous": false,
      "inputs": [
        {
          "indexed": true,
          "internalType": "address",
          "name": "previousOwner",
          "type": "address"
        },
        {
          "indexed": true,
          "internalType": "address",
          "name": "newOwner",
          "type": "address"
        }
      ],
      "name": "OwnershipTransferred",
      "type": "event"
    },
    {
      "anonymous": false,
      "inputs": [
        {
          "indexed": true,
          "internalType": "address",
          "name": "from",
          "type": "address"
        },
        {
          "indexed": true,
          "internalType": "address",
          "name": "to",
          "type": "address"
        },
        {
          "indexed": false,
          "internalType": "uint256",
          "name": "value",
          "type": "uint256"
        }
      ],
      "name": "Transfer",
      "type": "event"
    },
    {
      "anonymous": false,
      "inputs": [
        {
          "indexed": true,
          "internalType": "address",
          "name": "user",
          "type": "address"
        },
        {
          "indexed": true,
          "internalType": "uint256",
          "name": "pid",
          "type": "uint256"
        },
        {
          "indexed": false,
          "internalType": "uint256",
          "name": "amount",
          "type": "uint256"
        }
      ],
      "name": "Withdraw",
      "type": "event"
    },
    {
      "inputs": [
        {
          "internalType": "address",
          "name": "owner",
          "type": "address"
        },
        {
          "internalType": "address",
          "name": "spender",
          "type": "address"
        }
      ],
      "name": "allowance",
      "outputs": [
        {
          "internalType": "uint256",
          "name": "",
          "type": "uint256"
        }
      ],
      "stateMutability": "view",
      "type": "function"
    },
    {
      "inputs": [
        {
          "internalType": "address",
          "name": "spender",
          "type": "address"
        },
        {
          "internalType": "uint256",
          "name": "amount",
          "type": "uint256"
        }
      ],
      "name": "approve",
      "outputs": [
        {
          "internalType": "bool",
          "name": "",
          "type": "bool"
        }
      ],
      "stateMutability": "nonpayable",
      "type": "function"
    },
    {
      "inputs": [
        {
          "internalType": "address",
          "name": "account",
          "type": "address"
        }
      ],
      "name": "balanceOf",
      "outputs": [
        {
          "internalType": "uint256",
          "name": "",
          "type": "uint256"
        }
      ],
      "stateMutability": "view",
      "type": "function"
    },
    {
      "inputs": [],
      "name": "decimals",
      "outputs": [
        {
          "internalType": "uint8",
          "name": "",
          "type": "uint8"
        }
      ],
      "stateMutability": "view",
      "type": "function"
    },
    {
      "inputs": [
        {
          "internalType": "address",
          "name": "spender",
          "type": "address"
        },
        {
          "internalType": "uint256",
          "name": "subtractedValue",
          "type": "uint256"
        }
      ],
      "name": "decreaseAllowance",
      "outputs": [
        {
          "internalType": "bool",
          "name": "",
          "type": "bool"
        }
      ],
      "stateMutability": "nonpayable",
      "type": "function"
    },
    {
      "inputs": [
        {
          "internalType": "address",
          "name": "spender",
          "type": "address"
        },
        {
          "internalType": "uint256",
          "name": "addedValue",
          "type": "uint256"
        }
      ],
      "name": "increaseAllowance",
      "outputs": [
        {
          "internalType": "bool",
          "name": "",
          "type": "bool"
        }
      ],
      "stateMutability": "nonpayable",
      "type": "function"
    },
    {
      "inputs": [],
      "name": "name",
      "outputs": [
        {
          "internalType": "string",
          "name": "",
          "type": "string"
        }
      ],
      "stateMutability": "view",
      "type": "function"
    },
    {
      "inputs": [],
      "name": "owner",
      "outputs": [
        {
          "internalType": "address",
          "name": "",
          "type": "address"
        }
      ],
      "stateMutability": "view",
      "type": "function"
    },
    {
      "inputs": [],
      "name": "renounceOwnership",
      "outputs": [],
      "stateMutability": "nonpayable",
      "type": "function"
    },
    {
      "inputs": [],
      "name": "symbol",
      "outputs": [
        {
          "internalType": "string",
          "name": "",
          "type": "string"
        }
      ],
      "stateMutability": "view",
      "type": "function"
    },
    {
      "inputs": [],
      "name": "totalSupply",
      "outputs": [
        {
          "internalType": "uint256",
          "name": "",
          "type": "uint256"
        }
      ],
      "stateMutability": "view",
      "type": "function"
    },
    {
      "inputs": [
        {
          "internalType": "address",
          "name": "recipient",
          "type": "address"
        },
        {
          "internalType": "uint256",
          "name": "amount",
          "type": "uint256"
        }
      ],
      "name": "transfer",
      "outputs": [
        {
          "internalType": "bool",
          "name": "",
          "type": "bool"
        }
      ],
      "stateMutability": "nonpayable",
      "type": "function"
    },
    {
      "inputs": [
        {
          "internalType": "address",
          "name": "sender",
          "type": "address"
        },
        {
          "internalType": "address",
          "name": "recipient",
          "type": "address"
        },
        {
          "internalType": "uint256",
          "name": "amount",
          "type": "uint256"
        }
      ],
      "name": "transferFrom",
      "outputs": [
        {
          "internalType": "bool",
          "name": "",
          "type": "bool"
        }
      ],
      "stateMutability": "nonpayable",
      "type": "function"
    },
    {
      "inputs": [
        {
          "internalType": "address",
          "name": "newOwner",
          "type": "address"
        }
      ],
      "name": "transferOwnership",
      "outputs": [],
      "stateMutability": "nonpayable",
      "type": "function"
    },
    {
      "inputs": [
        {
          "internalType": "uint256",
          "name": "_pid",
          "type": "uint256"
        }
      ],
      "name": "getPoolInfo",
      "outputs": [
        {
          "internalType": "address",
          "name": "_poolAddress",
          "type": "address"
        },
        {
          "internalType": "address[]",
          "name": "_coins",
          "type": "address[]"
        },
        {
          "internalType": "uint256",
          "name": "_allocPoint",
          "type": "uint256"
        },
        {
          "internalType": "uint256",
          "name": "_accTokenPerShare",
          "type": "uint256"
        },
        {
          "internalType": "uint256",
          "name": "_shareRewardRate",
          "type": "uint256"
        },
        {
          "internalType": "uint256",
          "name": "_swapRewardRate",
          "type": "uint256"
        },
        {
          "internalType": "uint256",
          "name": "_totalVolAccPoints",
          "type": "uint256"
        },
        {
          "internalType": "uint256",
          "name": "_totalVolReward",
          "type": "uint256"
        },
        {
          "internalType": "uint256",
          "name": "_lastUpdateTime",
          "type": "uint256"
        },
        {
          "internalType": "uint256[]",
          "name": "arrData",
          "type": "uint256[]"
        }
      ],
      "stateMutability": "view",
      "type": "function"
    },
    {
      "inputs": [],
      "name": "getTokenAddress",
      "outputs": [
        {
          "internalType": "address",
          "name": "taddress",
          "type": "address"
        }
      ],
      "stateMutability": "view",
      "type": "function"
    },
    {
      "inputs": [
        {
          "internalType": "uint256",
          "name": "_pid",
          "type": "uint256"
        },
        {
          "internalType": "address",
          "name": "user",
          "type": "address"
        }
      ],
      "name": "getUserInfo",
      "outputs": [
        {
          "internalType": "uint256",
          "name": "_amount",
          "type": "uint256"
        },
        {
          "internalType": "uint256",
          "name": "_volume",
          "type": "uint256"
        },
        {
          "internalType": "uint256",
          "name": "_rewardDebt",
          "type": "uint256"
        },
        {
          "internalType": "uint256",
          "name": "_volReward",
          "type": "uint256"
        },
        {
          "internalType": "uint256",
          "name": "_farmingReward",
          "type": "uint256"
        }
      ],
      "stateMutability": "view",
      "type": "function"
    },
    {
      "inputs": [
        {
          "internalType": "uint256",
          "name": "_pid",
          "type": "uint256"
        }
      ],
      "name": "getPoolUsers",
      "outputs": [
        {
          "internalType": "address[]",
          "name": "_users",
          "type": "address[]"
        }
      ],
      "stateMutability": "view",
      "type": "function"
    },
    {
      "inputs": [],
      "name": "getPoolsLength",
      "outputs": [
        {
          "internalType": "uint256",
          "name": "l",
          "type": "uint256"
        }
      ],
      "stateMutability": "view",
      "type": "function"
    },
    {
      "inputs": [],
      "name": "getTotalAllocPoint",
      "outputs": [
        {
          "internalType": "uint256",
          "name": "r",
          "type": "uint256"
        }
      ],
      "stateMutability": "view",
      "type": "function"
    },
    {
      "inputs": [],
      "name": "isMigrationOpen",
      "outputs": [
        {
          "internalType": "bool",
          "name": "r",
          "type": "bool"
        }
      ],
      "stateMutability": "view",
      "type": "function"
    },
    {
      "inputs": [],
      "name": "getMigrateFrom",
      "outputs": [
        {
          "internalType": "address",
          "name": "_a",
          "type": "address"
        }
      ],
      "stateMutability": "view",
      "type": "function"
    },
    {
      "inputs": [
        {
          "internalType": "uint256",
          "name": "_pid",
          "type": "uint256"
        }
      ],
      "name": "A",
      "outputs": [
        {
          "internalType": "uint256",
          "name": "A1",
          "type": "uint256"
        }
      ],
      "stateMutability": "view",
      "type": "function"
    },
    {
      "inputs": [
        {
          "internalType": "uint256",
          "name": "_pid",
          "type": "uint256"
        }
      ],
      "name": "get_virtual_price",
      "outputs": [
        {
          "internalType": "uint256",
          "name": "price",
          "type": "uint256"
        }
      ],
      "stateMutability": "view",
      "type": "function"
    },
    {
      "inputs": [
        {
          "internalType": "uint256",
          "name": "_pid",
          "type": "uint256"
        },
        {
          "internalType": "uint256[]",
          "name": "amounts",
          "type": "uint256[]"
        },
        {
          "internalType": "bool",
          "name": "deposit",
          "type": "bool"
        }
      ],
      "name": "calc_token_amount",
      "outputs": [
        {
          "internalType": "uint256",
          "name": "result",
          "type": "uint256"
        }
      ],
      "stateMutability": "view",
      "type": "function"
    },
    {
      "inputs": [
        {
          "internalType": "uint256",
          "name": "_pid",
          "type": "uint256"
        },
        {
          "internalType": "uint256[]",
          "name": "amounts",
          "type": "uint256[]"
        },
        {
          "internalType": "uint256",
          "name": "min_mint_amount",
          "type": "uint256"
        }
      ],
      "name": "add_liquidity",
      "outputs": [],
      "stateMutability": "nonpayable",
      "type": "function"
    },
    {
      "inputs": [
        {
          "internalType": "uint256",
          "name": "_pid",
          "type": "uint256"
        },
        {
          "internalType": "uint256",
          "name": "i",
          "type": "uint256"
        },
        {
          "internalType": "uint256",
          "name": "j",
          "type": "uint256"
        },
        {
          "internalType": "uint256",
          "name": "dx",
          "type": "uint256"
        }
      ],
      "name": "get_dy",
      "outputs": [
        {
          "internalType": "uint256",
          "name": "result",
          "type": "uint256"
        }
      ],
      "stateMutability": "view",
      "type": "function"
    },
    {
      "inputs": [
        {
          "internalType": "uint256",
          "name": "_pid",
          "type": "uint256"
        },
        {
          "internalType": "uint256",
          "name": "i",
          "type": "uint256"
        },
        {
          "internalType": "uint256",
          "name": "j",
          "type": "uint256"
        },
        {
          "internalType": "uint256",
          "name": "dx",
          "type": "uint256"
        }
      ],
      "name": "get_dy_underlying",
      "outputs": [
        {
          "internalType": "uint256",
          "name": "result",
          "type": "uint256"
        }
      ],
      "stateMutability": "view",
      "type": "function"
    },
    {
      "inputs": [
        {
          "internalType": "uint256",
          "name": "_pid",
          "type": "uint256"
        },
        {
          "internalType": "uint256",
          "name": "i",
          "type": "uint256"
        },
        {
          "internalType": "uint256",
          "name": "j",
          "type": "uint256"
        },
        {
          "internalType": "uint256",
          "name": "dx",
          "type": "uint256"
        },
        {
          "internalType": "uint256",
          "name": "min_dy",
          "type": "uint256"
        }
      ],
      "name": "exchange",
      "outputs": [],
      "stateMutability": "nonpayable",
      "type": "function"
    },
    {
      "inputs": [
        {
          "internalType": "uint256",
          "name": "_pid",
          "type": "uint256"
        },
        {
          "internalType": "uint256",
          "name": "_amount",
          "type": "uint256"
        },
        {
          "internalType": "uint256[]",
          "name": "min_amounts",
          "type": "uint256[]"
        }
      ],
      "name": "remove_liquidity",
      "outputs": [],
      "stateMutability": "nonpayable",
      "type": "function"
    },
    {
      "inputs": [
        {
          "internalType": "uint256",
          "name": "_pid",
          "type": "uint256"
        },
        {
          "internalType": "uint256[]",
          "name": "amounts",
          "type": "uint256[]"
        },
        {
          "internalType": "uint256",
          "name": "max_burn_amount",
          "type": "uint256"
        }
      ],
      "name": "remove_liquidity_imbalance",
      "outputs": [],
      "stateMutability": "nonpayable",
      "type": "function"
    },
    {
      "inputs": [
        {
          "internalType": "uint256",
          "name": "_pid",
          "type": "uint256"
        },
        {
          "internalType": "uint256",
          "name": "_token_amount",
          "type": "uint256"
        },
        {
          "internalType": "uint256",
          "name": "i",
          "type": "uint256"
        }
      ],
      "name": "calc_withdraw_one_coin",
      "outputs": [
        {
          "internalType": "uint256",
          "name": "result",
          "type": "uint256"
        }
      ],
      "stateMutability": "view",
      "type": "function"
    },
    {
      "inputs": [
        {
          "internalType": "uint256",
          "name": "_pid",
          "type": "uint256"
        },
        {
          "internalType": "uint256",
          "name": "_token_amount",
          "type": "uint256"
        },
        {
          "internalType": "uint256",
          "name": "i",
          "type": "uint256"
        },
        {
          "internalType": "uint256",
          "name": "min_amount",
          "type": "uint256"
        }
      ],
      "name": "remove_liquidity_one_coin",
      "outputs": [],
      "stateMutability": "nonpayable",
      "type": "function"
    },
    {
      "inputs": [
        {
          "internalType": "uint256",
          "name": "_pid",
          "type": "uint256"
        }
      ],
      "name": "getPoolAddress",
      "outputs": [
        {
          "internalType": "address",
          "name": "_poolAddress",
          "type": "address"
        }
      ],
      "stateMutability": "view",
      "type": "function"
    },
    {
      "inputs": [
        {
          "internalType": "uint256",
          "name": "_pid",
          "type": "uint256"
        },
        {
          "internalType": "address",
          "name": "_user",
          "type": "address"
        }
      ],
      "name": "pendingReward",
      "outputs": [
        {
          "internalType": "uint256",
          "name": "",
          "type": "uint256"
        }
      ],
      "stateMutability": "view",
      "type": "function"
    },
    {
      "inputs": [],
      "name": "massUpdatePools",
      "outputs": [],
      "stateMutability": "nonpayable",
      "type": "function"
    },
    {
      "inputs": [
        {
          "internalType": "uint256",
          "name": "_pid",
          "type": "uint256"
        }
      ],
      "name": "updatePool",
      "outputs": [],
      "stateMutability": "nonpayable",
      "type": "function"
    },
    {
      "inputs": [
        {
          "internalType": "uint256",
          "name": "_pid",
          "type": "uint256"
        }
      ],
      "name": "updatePoolForExchange",
      "outputs": [],
      "stateMutability": "nonpayable",
      "type": "function"
    },
    {
      "inputs": [
        {
          "internalType": "uint256",
          "name": "_pid",
          "type": "uint256"
        },
        {
          "internalType": "uint256",
          "name": "_amount",
          "type": "uint256"
        }
      ],
      "name": "deposit",
      "outputs": [],
      "stateMutability": "nonpayable",
      "type": "function"
    },
    {
      "inputs": [
        {
          "internalType": "uint256",
          "name": "_pid",
          "type": "uint256"
        },
        {
          "internalType": "uint256",
          "name": "_amount",
          "type": "uint256"
        }
      ],
      "name": "withdraw",
      "outputs": [],
      "stateMutability": "nonpayable",
      "type": "function"
    },
    {
      "inputs": [
        {
          "internalType": "uint256",
          "name": "_pid",
          "type": "uint256"
        }
      ],
      "name": "emergencyWithdraw",
      "outputs": [],
      "stateMutability": "nonpayable",
      "type": "function"
    },
    {
      "inputs": [],
      "name": "openMigration",
      "outputs": [],
      "stateMutability": "nonpayable",
      "type": "function"
    },
    {
      "inputs": [],
      "name": "closeMigration",
      "outputs": [],
      "stateMutability": "nonpayable",
      "type": "function"
    },
    {
      "inputs": [
        {
          "internalType": "address",
          "name": "_poolAddress",
          "type": "address"
        },
        {
          "internalType": "address[]",
          "name": "_coins",
          "type": "address[]"
        },
        {
          "internalType": "uint256",
          "name": "_allocPoint",
          "type": "uint256"
        }
      ],
      "name": "addPool",
      "outputs": [],
      "stateMutability": "nonpayable",
      "type": "function"
    },
    {
      "inputs": [
        {
          "internalType": "uint256",
          "name": "_pid",
          "type": "uint256"
        },
        {
          "internalType": "uint256",
          "name": "shareRate",
          "type": "uint256"
        },
        {
          "internalType": "uint256",
          "name": "swapRate",
          "type": "uint256"
        }
      ],
      "name": "setPoolRewardRate",
      "outputs": [],
      "stateMutability": "nonpayable",
      "type": "function"
    },
    {
      "inputs": [
        {
          "internalType": "uint256",
          "name": "_pid",
          "type": "uint256"
        },
        {
          "internalType": "address[]",
          "name": "_coins",
          "type": "address[]"
        }
      ],
      "name": "setPoolCoins",
      "outputs": [],
      "stateMutability": "nonpayable",
      "type": "function"
    },
    {
      "inputs": [
        {
          "internalType": "uint256",
          "name": "_pid",
          "type": "uint256"
        },
        {
          "internalType": "uint256",
          "name": "_allocPoint",
          "type": "uint256"
        }
      ],
      "name": "setPoolAllocPoint",
      "outputs": [],
      "stateMutability": "nonpayable",
      "type": "function"
    },
    {
      "inputs": [
        {
          "internalType": "address",
          "name": "to",
          "type": "address"
        }
      ],
      "name": "transferMinterTo",
      "outputs": [],
      "stateMutability": "nonpayable",
      "type": "function"
    },
    {
      "inputs": [
        {
          "internalType": "address",
          "name": "nMinter",
          "type": "address"
        }
      ],
      "name": "approveTokenTo",
      "outputs": [],
      "stateMutability": "nonpayable",
      "type": "function"
    },
    {
      "inputs": [
        {
          "internalType": "address",
          "name": "_from",
          "type": "address"
        }
      ],
      "name": "migrate",
      "outputs": [],
      "stateMutability": "nonpayable",
      "type": "function"
    }
  ],
  "bytecode": "0x60806040526000600955600c805460ff191690553480156200002057600080fd5b506040516200610538038062006105833981810160405260608110156200004657600080fd5b81019080805160405193929190846401000000008211156200006757600080fd5b9083019060208201858111156200007d57600080fd5b82516401000000008111828201881017156200009857600080fd5b82525081516020918201929091019080838360005b83811015620000c7578181015183820152602001620000ad565b50505050905090810190601f168015620000f55780820380516001836020036101000a031916815260200191505b50604052602001805160405193929190846401000000008211156200011957600080fd5b9083019060208201858111156200012f57600080fd5b82516401000000008111828201881017156200014a57600080fd5b82525081516020918201929091019080838360005b83811015620001795781810151838201526020016200015f565b50505050905090810190601f168015620001a75780820380516001836020036101000a031916815260200191505b5060405260209081015185519093508592508491620001cc91600391850190620003ab565b508051620001e2906004906020840190620003ab565b50506005805460ff19166012179055506000620002076001600160e01b036200028e16565b60058054610100600160a81b0319166101006001600160a01b0384169081029190911790915560405191925090600090600080516020620060e5833981519152908290a350600160065562000265336001600160e01b036200029316565b600a80546001600160a01b0319166001600160a01b0392909216919091179055506200044d9050565b335b90565b620002a66001600160e01b036200028e16565b60055461010090046001600160a01b039081169116146200030e576040805162461bcd60e51b815260206004820181905260248201527f4f776e61626c653a2063616c6c6572206973206e6f7420746865206f776e6572604482015290519081900360640190fd5b6001600160a01b038116620003555760405162461bcd60e51b8152600401808060200182810382526026815260200180620060bf6026913960400191505060405180910390fd5b6005546040516001600160a01b038084169261010090041690600080516020620060e583398151915290600090a3600580546001600160a01b0390921661010002610100600160a81b0319909216919091179055565b828054600181600116156101000203166002900490600052602060002090601f016020900481019282601f10620003ee57805160ff19168380011785556200041e565b828001600101855582156200041e579182015b828111156200041e57825182559160200191906001019062000401565b506200042c92915062000430565b5090565b6200029091905b808211156200042c576000815560010162000437565b615c62806200045d6000396000f3fe608060405234801561001057600080fd5b50600436106102d55760003560e01c80638f9f31fe11610182578063ce5494bb116100e9578063dd62ed3e116100a2578063e43bcc421161007c578063e43bcc4214610bd0578063e8fe8ab114610c4a578063f2fde38b14610c7f578063f53222f114610ca5576102d5565b8063dd62ed3e14610b77578063df68920014610ba5578063e2bbb15814610bad576102d5565b8063ce5494bb14610a6b578063ce883cdb14610a91578063d5fdcb3c14610a99578063d8291e7514610ab6578063da6f83da14610adf578063dc628aa414610b54576102d5565b8063a457c2d71161013b578063a457c2d7146108fb578063a9059cbb14610927578063b03d67fe14610953578063b36795901461095b578063b8084f9014610981578063c93eca34146109f6576102d5565b80638f9f31fe1461086b57806395d89b411461087357806398969e821461087b5780639b3007da146108a7578063a096165a146108af578063a17a9e66146108de576102d5565b80633a58b91a1161024157806360cb3814116101fa578063715018a6116101d4578063715018a6146107c0578063748b4599146107c85780638da5cb5b146107e55780638dec81fa146107ed576102d5565b806360cb38141461076c578063630b5ba11461079257806370a082311461079a576102d5565b80633a58b91a14610623578063441a3e701461062b57806351eb05a61461064e5780635237f7311461066b5780635312ea8e146106d85780635c658d36146106f5576102d5565b806310fe9ae81161029357806310fe9ae81461049357806318160ddd1461049b57806323b872dd146104a35780632f380b35146104d9578063313ce567146105d957806339509351146105f7576102d5565b8062a5ae21146102da57806302a4c0cf14610313578063046237851461034e57806306fdde031461037f578063095ea7b3146103fc5780631069f3b51461043c575b600080fd5b6102f7600480360360208110156102f057600080fd5b5035610cd4565b604080516001600160a01b039092168252519081900360200190f35b61033c6004803603606081101561032957600080fd5b5080359060208101359060400135610d4a565b60408051918252519081900360200190f35b61037d6004803603608081101561036457600080fd5b5080359060208101359060408101359060600135610ea3565b005b610387611228565b6040805160208082528351818301528351919283929083019185019080838360005b838110156103c15781810151838201526020016103a9565b50505050905090810190601f1680156103ee5780820380516001836020036101000a031916815260200191505b509250505060405180910390f35b6104286004803603604081101561041257600080fd5b506001600160a01b0381351690602001356112bf565b604080519115158252519081900360200190f35b6104686004803603604081101561045257600080fd5b50803590602001356001600160a01b03166112dd565b6040805195865260208601949094528484019290925260608401526080830152519081900360a00190f35b6102f7611322565b61033c611331565b610428600480360360608110156104b957600080fd5b506001600160a01b03813581169160208101359091169060400135611337565b6104f6600480360360208110156104ef57600080fd5b50356113c4565b604051808b6001600160a01b03166001600160a01b03168152602001806020018a81526020018981526020018881526020018781526020018681526020018581526020018481526020018060200183810383528c818151815260200191508051906020019060200280838360005b8381101561057c578181015183820152602001610564565b50505050905001838103825284818151815260200191508051906020019060200280838360005b838110156105bb5781810151838201526020016105a3565b505050509050019c5050505050505050505050505060405180910390f35b6105e1611720565b6040805160ff9092168252519081900360200190f35b6104286004803603604081101561060d57600080fd5b506001600160a01b038135169060200135611729565b61033c61177d565b61037d6004803603604081101561064157600080fd5b5080359060200135611783565b61037d6004803603602081101561066457600080fd5b5035611ad4565b6106886004803603602081101561068157600080fd5b5035611de3565b60408051602080825283518183015283519192839290830191858101910280838360005b838110156106c45781810151838201526020016106ac565b505050509050019250505060405180910390f35b61037d600480360360208110156106ee57600080fd5b5035611e4f565b61033c6004803603606081101561070b57600080fd5b81359190810190604081016020820135600160201b81111561072c57600080fd5b82018360208201111561073e57600080fd5b803590602001918460208302840111600160201b8311171561075f57600080fd5b9193509150351515611f31565b61037d6004803603602081101561078257600080fd5b50356001600160a01b03166120c2565b61037d6121df565b61033c600480360360208110156107b057600080fd5b50356001600160a01b0316612248565b61037d612263565b61033c600480360360208110156107de57600080fd5b5035612310565b6102f7612459565b61037d6004803603606081101561080357600080fd5b6001600160a01b038235169190810190604081016020820135600160201b81111561082d57600080fd5b82018360208201111561083f57600080fd5b803590602001918460208302840111600160201b8311171561086057600080fd5b91935091503561246d565b610428612612565b61038761261b565b61033c6004803603604081101561089157600080fd5b50803590602001356001600160a01b031661267c565b61037d61287f565b61033c600480360360808110156108c557600080fd5b50803590602081013590604081013590606001356128eb565b61033c600480360360208110156108f457600080fd5b5035612a17565b6104286004803603604081101561091157600080fd5b506001600160a01b038135169060200135612b2e565b6104286004803603604081101561093d57600080fd5b506001600160a01b038135169060200135612b9c565b61037d612bb0565b61037d6004803603602081101561097157600080fd5b50356001600160a01b0316612c19565b61037d6004803603606081101561099757600080fd5b81359190810190604081016020820135600160201b8111156109b857600080fd5b8201836020820111156109ca57600080fd5b803590602001918460208302840111600160201b831117156109eb57600080fd5b919350915035612dc6565b61037d60048036036040811015610a0c57600080fd5b81359190810190604081016020820135600160201b811115610a2d57600080fd5b820183602082011115610a3f57600080fd5b803590602001918460208302840111600160201b83111715610a6057600080fd5b509092509050613147565b61037d60048036036020811015610a8157600080fd5b50356001600160a01b031661317a565b61033c613441565b61037d60048036036020811015610aaf57600080fd5b5035613447565b61037d60048036036060811015610acc57600080fd5b508035906020810135906040013561368f565b61037d60048036036060811015610af557600080fd5b81359190810190604081016020820135600160201b811115610b1657600080fd5b820183602082011115610b2857600080fd5b803590602001918460208302840111600160201b83111715610b4957600080fd5b919350915035613746565b61037d60048036036040811015610b6a57600080fd5b5080359060200135613ae8565b61033c60048036036040811015610b8d57600080fd5b506001600160a01b0381358116916020013516613bb5565b6102f7613be0565b61037d60048036036040811015610bc357600080fd5b5080359060200135613bf4565b61037d60048036036060811015610be657600080fd5b813591602081013591810190606081016040820135600160201b811115610c0c57600080fd5b820183602082011115610c1e57600080fd5b803590602001918460208302840111600160201b83111715610c3f57600080fd5b509092509050613f4e565b61037d600480360360a0811015610c6057600080fd5b50803590602081013590604081013590606081013590608001356142b0565b61037d60048036036020811015610c9557600080fd5b50356001600160a01b0316614a4a565b61033c60048036036080811015610cbb57600080fd5b5080359060208101359060408101359060600135614b53565b600c5460009060ff1615610d1d576040805162461bcd60e51b81526020600482015260146024820152600080516020615aa8833981519152604482015290519081900360640190fd5b60078281548110610d2a57fe5b60009182526020909120600990910201546001600160a01b031692915050565b600c5460009060ff1615610d93576040805162461bcd60e51b81526020600482015260146024820152600080516020615aa8833981519152604482015290519081900360640190fd5b60006001600160a01b031660078581548110610dab57fe5b60009182526020909120600990910201546001600160a01b03161415610e06576040805162461bcd60e51b815260206004820152601a6024820152600080516020615af0833981519152604482015290519081900360640190fd5b60078481548110610e1357fe5b600091825260209182902060099091020154604080516327d8462f60e11b8152600481018790526024810186905290516001600160a01b0390921692634fb08c5e92604480840193829003018186803b158015610e6f57600080fd5b505afa158015610e83573d6000803e3d6000fd5b505050506040513d6020811015610e9957600080fd5b5051949350505050565b60026006541415610ee9576040805162461bcd60e51b815260206004820152601f6024820152600080516020615a3e833981519152604482015290519081900360640190fd5b6002600655600c5460ff1615610f34576040805162461bcd60e51b81526020600482015260146024820152600080516020615aa8833981519152604482015290519081900360640190fd5b60006001600160a01b031660078581548110610f4c57fe5b60009182526020909120600990910201546001600160a01b03161415610fa7576040805162461bcd60e51b815260206004820152601a6024820152600080516020615af0833981519152604482015290519081900360640190fd5b610fd960078581548110610fb757fe5b60009182526020909120600990910201546001600160a01b0316333086614c7f565b60078481548110610fe657fe5b600091825260208220600990910201546040805163f1dc3cc960e01b815260048101879052602481018690526044810185905290516001600160a01b039092169263f1dc3cc99260648084019382900301818387803b15801561104857600080fd5b505af115801561105c573d6000803e3d6000fd5b5050505060006007858154811061106f57fe5b600091825260209182902060099091020154604080516370a0823160e01b815230600482015290516001600160a01b03909216926370a0823192602480840193829003018186803b1580156110c357600080fd5b505afa1580156110d7573d6000803e3d6000fd5b505050506040513d60208110156110ed57600080fd5b505190508015611128576111286007868154811061110757fe5b60009182526020909120600990910201546001600160a01b03163383614ddc565b60006007868154811061113757fe5b9060005260206000209060090201600101848154811061115357fe5b60009182526020918290200154604080516370a0823160e01b815230600482015290516001600160a01b03909216926370a0823192602480840193829003018186803b1580156111a257600080fd5b505afa1580156111b6573d6000803e3d6000fd5b505050506040513d60208110156111cc57600080fd5b50516007805491925061121b91889081106111e357fe5b906000526020600020906009020160010185815481106111ff57fe5b6000918252602090912001546001600160a01b03163383614ddc565b5050600160065550505050565b60038054604080516020601f60026000196101006001881615020190951694909404938401819004810282018101909252828152606093909290918301828280156112b45780601f10611289576101008083540402835291602001916112b4565b820191906000526020600020905b81548152906001019060200180831161129757829003601f168201915b505050505090505b90565b60006112d36112cc614f3f565b8484614f43565b5060015b92915050565b6000918252600b602090815260408084206001600160a01b03939093168452919052902080546001820154600283015460038401546004909401549294919390929091565b600a546001600160a01b031690565b60025490565b600061134484848461502f565b6113ba84611350614f3f565b6113b585604051806060016040528060288152602001615ac8602891396001600160a01b038a1660009081526001602052604081209061138e614f3f565b6001600160a01b03168152602081019190915260400160002054919063ffffffff61519616565b614f43565b5060019392505050565b60006060818080808080808760076040519080825280602002602001820160405280156113fb578160200160208202803683370190505b50905060078b8154811061140b57fe5b6000918252602090912060099091020154600780546001600160a01b039092169b50908c90811061143857fe5b906000526020600020906009020160010180548060200260200160405190810160405280929190818152602001828054801561149d57602002820191906000526020600020905b81546001600160a01b0316815260019091019060200180831161147f575b5050505050985060078b815481106114b157fe5b906000526020600020906009020160020154975060078b815481106114d257fe5b906000526020600020906009020160020154816000815181106114f157fe5b60200260200101818152505060078b8154811061150a57fe5b906000526020600020906009020160030154965060078b8154811061152b57fe5b9060005260206000209060090201600301548160018151811061154a57fe5b60200260200101818152505060078b8154811061156357fe5b906000526020600020906009020160040154955060078b8154811061158457fe5b906000526020600020906009020160040154816002815181106115a357fe5b60200260200101818152505060078b815481106115bc57fe5b906000526020600020906009020160050154945060078b815481106115dd57fe5b906000526020600020906009020160050154816003815181106115fc57fe5b60200260200101818152505060078b8154811061161557fe5b906000526020600020906009020160060154935060078b8154811061163657fe5b9060005260206000209060090201600601548160048151811061165557fe5b60200260200101818152505060078b8154811061166e57fe5b906000526020600020906009020160070154925060078b8154811061168f57fe5b906000526020600020906009020160070154816005815181106116ae57fe5b60200260200101818152505060078b815481106116c757fe5b906000526020600020906009020160080154915060078b815481106116e857fe5b9060005260206000209060090201600801548160068151811061170757fe5b6020026020010181815250509193959799509193959799565b60055460ff1690565b60006112d3611736614f3f565b846113b58560016000611747614f3f565b6001600160a01b03908116825260208083019390935260409182016000908120918c16815292529020549063ffffffff61522d16565b60095490565b600c5460ff16156117c9576040805162461bcd60e51b81526020600482015260146024820152600080516020615aa8833981519152604482015290519081900360640190fd5b6000828152600b602090815260408083203384529091529020805482111561182d576040805162461bcd60e51b81526020600482015260126024820152711dda5d1a191c985dce881b9bdd0819dbdbd960721b604482015290519081900360640190fd5b61183683611ad4565b60006007848154811061184557fe5b90600052602060002090600902019050600061189e8360020154611892670de0b6b3a76400006118868660030154886000015461528e90919063ffffffff16565b9063ffffffff6152e716565b9063ffffffff61532916565b90508015611a3d57600061195f670de0b6b3a76400006118868560040154600a60009054906101000a90046001600160a01b03166001600160a01b03166370a08231306040518263ffffffff1660e01b815260040180826001600160a01b03166001600160a01b0316815260200191505060206040518083038186803b15801561192757600080fd5b505afa15801561193b573d6000803e3d6000fd5b505050506040513d602081101561195157600080fd5b50519063ffffffff61528e16565b90508181106119d4576000868152600b60209081526040808320338452909152902060040154611995908363ffffffff61522d16565b6000878152600b6020908152604080832033808552925290912060040191909155600a546119cf916001600160a01b039091169084614ddc565b611a3b565b6000868152600b60209081526040808320338452909152902060040154611a01908263ffffffff61522d16565b6000878152600b6020908152604080832033808552925290912060040191909155600a54611a3b916001600160a01b039091169083614ddc565b505b8315611a6d578254611a55908563ffffffff61532916565b83558154611a6d906001600160a01b03163386614ddc565b60038201548354611a9191670de0b6b3a7640000916118869163ffffffff61528e16565b6002840155604080518581529051869133917ff279e6a1f5e320cca91135676d9cb6e44ca8a08c0b88342bcdb1144f6511b5689181900360200190a35050505050565b600c5460ff1615611b1a576040805162461bcd60e51b81526020600482015260146024820152600080516020615aa8833981519152604482015290519081900360640190fd5b600060078281548110611b2957fe5b9060005260206000209060090201905080600801544211611b4a5750611de0565b8054604080516370a0823160e01b815230600482015290516000926001600160a01b0316916370a08231916024808301926020929190829003018186803b158015611b9457600080fd5b505afa158015611ba8573d6000803e3d6000fd5b505050506040513d6020811015611bbe57600080fd5b5051905080611bd4575042600890910155611de0565b6000611cd0600a60009054906101000a90046001600160a01b03166001600160a01b03166318160ddd6040518163ffffffff1660e01b815260040160206040518083038186803b158015611c2757600080fd5b505afa158015611c3b573d6000803e3d6000fd5b505050506040513d6020811015611c5157600080fd5b5051600a5460408051633f6615ab60e11b815290516001600160a01b0390921691637ecc2b5691600480820192602092909190829003018186803b158015611c9857600080fd5b505afa158015611cac573d6000803e3d6000fd5b505050506040513d6020811015611cc257600080fd5b50519063ffffffff61532916565b90506000611cf160095461188686600201548561528e90919063ffffffff16565b90506000611d18670de0b6b3a764000061188687600401548561528e90919063ffffffff16565b600a54604080516340c10f1960e01b81523060048201526024810186905290519293506001600160a01b03909116916340c10f19916044808201926020929091908290030181600087803b158015611d6f57600080fd5b505af1158015611d83573d6000803e3d6000fd5b505050506040513d6020811015611d9957600080fd5b50611dcc9050611dbb8561188684670de0b6b3a764000063ffffffff61528e16565b60038701549063ffffffff61522d16565b600386015550504260089093019290925550505b50565b600081815260086020908152604091829020805483518184028101840190945280845260609392830182828015611e4357602002820191906000526020600020905b81546001600160a01b03168152600190910190602001808311611e25575b50505050509050919050565b600c5460ff1615611e95576040805162461bcd60e51b81526020600482015260146024820152600080516020615aa8833981519152604482015290519081900360640190fd5b600060078281548110611ea457fe5b60009182526020808320858452600b825260408085203380875293528420805485825560028201959095556009909302018054909450919291611ef4916001600160a01b03919091169083614ddc565b604080518281529051859133917fbb757047c2b5f3974fe26b7c10f732e7bce710b0952a71082702781e62ae05959181900360200190a350505050565b600c5460009060ff1615611f7a576040805162461bcd60e51b81526020600482015260146024820152600080516020615aa8833981519152604482015290519081900360640190fd5b60006001600160a01b031660078681548110611f9257fe5b60009182526020909120600990910201546001600160a01b03161415611fed576040805162461bcd60e51b815260206004820152601a6024820152600080516020615af0833981519152604482015290519081900360640190fd5b60078581548110611ffa57fe5b600091825260209182902060099091020154604080516307b60dbb60e31b8152851515602482015260048101918252604481018790526001600160a01b0390921692633db06dd89288928892889282916064909101908690860280828437600083820152604051601f909101601f1916909201965060209550909350505081840390508186803b15801561208d57600080fd5b505afa1580156120a1573d6000803e3d6000fd5b505050506040513d60208110156120b757600080fd5b505195945050505050565b6120ca614f3f565b60055461010090046001600160a01b0390811691161461211f576040805162461bcd60e51b81526020600482018190526024820152600080516020615b31833981519152604482015290519081900360640190fd5b600c5460ff16612176576040805162461bcd60e51b815260206004820152601f60248201527f6f6e20616c6c6f77207768656e206d6967726174696f6e206973206f70656e00604482015290519081900360640190fd5b600a5460408051631832ce0560e21b81526001600160a01b038481166004830152915191909216916360cb381491602480830192600092919082900301818387803b1580156121c457600080fd5b505af11580156121d8573d6000803e3d6000fd5b5050505050565b600c5460ff1615612225576040805162461bcd60e51b81526020600482015260146024820152600080516020615aa8833981519152604482015290519081900360640190fd5b60075460005b818110156122445761223c81611ad4565b60010161222b565b5050565b6001600160a01b031660009081526020819052604090205490565b61226b614f3f565b60055461010090046001600160a01b039081169116146122c0576040805162461bcd60e51b81526020600482018190526024820152600080516020615b31833981519152604482015290519081900360640190fd5b60055460405160009161010090046001600160a01b0316907f8be0079c531659141344cd1fd0a4f28419497f9722a3daafe3b4186f6b6457e0908390a360058054610100600160a81b0319169055565b600c5460009060ff1615612359576040805162461bcd60e51b81526020600482015260146024820152600080516020615aa8833981519152604482015290519081900360640190fd5b60006001600160a01b03166007838154811061237157fe5b60009182526020909120600990910201546001600160a01b031614156123cc576040805162461bcd60e51b815260206004820152601a6024820152600080516020615af0833981519152604482015290519081900360640190fd5b600782815481106123d957fe5b60009182526020918290206009909102015460408051630176f71760e71b815290516001600160a01b039092169263bb7b8b8092600480840193829003018186803b15801561242757600080fd5b505afa15801561243b573d6000803e3d6000fd5b505050506040513d602081101561245157600080fd5b505192915050565b60055461010090046001600160a01b031690565b612475614f3f565b60055461010090046001600160a01b039081169116146124ca576040805162461bcd60e51b81526020600482018190526024820152600080516020615b31833981519152604482015290519081900360640190fd5b6009546124dd908263ffffffff61522d16565b6009819055506007604051806101200160405280866001600160a01b0316815260200185858080602002602001604051908101604052809392919081815260200183836020028082843760009201829052509385525050506020808301869052604083018290526706f05b59d3b2000060608401819052608084015260a0830182905260c083018290524260e09093019290925283546001808201865594825290829020835160099092020180546001600160a01b0319166001600160a01b03909216919091178155828201518051939491936125c29392850192919091019061593c565b5060408201518160020155606082015181600301556080820151816004015560a0820151816005015560c0820151816006015560e082015181600701556101008201518160080155505050505050565b600c5460ff1690565b60048054604080516020601f60026000196101006001881615020190951694909404938401819004810282018101909252828152606093909290918301828280156112b45780601f10611289576101008083540402835291602001916112b4565b600c5460009060ff16156126c5576040805162461bcd60e51b81526020600482015260146024820152600080516020615aa8833981519152604482015290519081900360640190fd5b6000600784815481106126d457fe5b60009182526020808320878452600b825260408085206001600160a01b0389811687529084528186206009959095029092016003810154815483516370a0823160e01b815230600482015293519298509596909590949316926370a082319260248082019391829003018186803b15801561274e57600080fd5b505afa158015612762573d6000803e3d6000fd5b505050506040513d602081101561277857600080fd5b5051905080156128495760006127d5600a60009054906101000a90046001600160a01b03166001600160a01b03166318160ddd6040518163ffffffff1660e01b815260040160206040518083038186803b158015611c2757600080fd5b90506000612816600954611886886002015461280a670de0b6b3a76400006118868c600401548961528e90919063ffffffff16565b9063ffffffff61528e16565b90506128446128378461188684670de0b6b3a764000063ffffffff61528e16565b859063ffffffff61522d16565b935050505b6128748360020154611892670de0b6b3a764000061188686886000015461528e90919063ffffffff16565b979650505050505050565b612887614f3f565b60055461010090046001600160a01b039081169116146128dc576040805162461bcd60e51b81526020600482018190526024820152600080516020615b31833981519152604482015290519081900360640190fd5b600c805460ff19166001179055565b600c5460009060ff1615612934576040805162461bcd60e51b81526020600482015260146024820152600080516020615aa8833981519152604482015290519081900360640190fd5b60006001600160a01b03166007868154811061294c57fe5b60009182526020909120600990910201546001600160a01b031614156129a7576040805162461bcd60e51b815260206004820152601a6024820152600080516020615af0833981519152604482015290519081900360640190fd5b600785815481106129b457fe5b600091825260209182902060099091020154604080516342f88e8f60e11b815260048101889052602481018790526044810186905290516001600160a01b03909216926385f11d1e92606480840193829003018186803b15801561208d57600080fd5b600c5460009060ff1615612a60576040805162461bcd60e51b81526020600482015260146024820152600080516020615aa8833981519152604482015290519081900360640190fd5b60006001600160a01b031660078381548110612a7857fe5b60009182526020909120600990910201546001600160a01b03161415612ad3576040805162461bcd60e51b815260206004820152601a6024820152600080516020615af0833981519152604482015290519081900360640190fd5b60078281548110612ae057fe5b60009182526020918290206009909102015460408051630f446c1d60e41b815290516001600160a01b039092169263f446c1d092600480840193829003018186803b15801561242757600080fd5b60006112d3612b3b614f3f565b846113b585604051806060016040528060258152602001615b9a6025913960016000612b65614f3f565b6001600160a01b03908116825260208083019390935260409182016000908120918d1681529252902054919063ffffffff61519616565b60006112d3612ba9614f3f565b848461502f565b612bb8614f3f565b60055461010090046001600160a01b03908116911614612c0d576040805162461bcd60e51b81526020600482018190526024820152600080516020615b31833981519152604482015290519081900360640190fd5b600c805460ff19169055565b612c21614f3f565b60055461010090046001600160a01b03908116911614612c76576040805162461bcd60e51b81526020600482018190526024820152600080516020615b31833981519152604482015290519081900360640190fd5b600a546040805163f366751760e01b815290516001600160a01b0392831692841691839163f366751791600480820192602092909190829003018186803b158015612cc057600080fd5b505afa158015612cd4573d6000803e3d6000fd5b505050506040513d6020811015612cea57600080fd5b50516001600160a01b031614612d315760405162461bcd60e51b8152600401808060200182810382526028815260200180615be36028913960400191505060405180910390fd5b604080516370a0823160e01b815230600482015290516000916001600160a01b038416916370a0823191602480820192602092909190829003018186803b158015612d7b57600080fd5b505afa158015612d8f573d6000803e3d6000fd5b505050506040513d6020811015612da557600080fd5b5051600a54909150612dc1906001600160a01b0316848361536b565b505050565b60026006541415612e0c576040805162461bcd60e51b815260206004820152601f6024820152600080516020615a3e833981519152604482015290519081900360640190fd5b6002600655600c5460ff1615612e57576040805162461bcd60e51b81526020600482015260146024820152600080516020615aa8833981519152604482015290519081900360640190fd5b60006001600160a01b031660078581548110612e6f57fe5b60009182526020909120600990910201546001600160a01b03161415612eca576040805162461bcd60e51b815260206004820152601a6024820152600080516020615af0833981519152604482015290519081900360640190fd5b60005b60078581548110612eda57fe5b906000526020600020906009020160010180549050811015612fdd57612f5160078681548110612f0657fe5b90600052602060002090600902016001018281548110612f2257fe5b6000918252602090912001546001600160a01b03163330878786818110612f4557fe5b90506020020135614c7f565b612fd560078681548110612f6157fe5b90600052602060002090600902016001018281548110612f7d57fe5b600091825260209091200154600780546001600160a01b039092169188908110612fa357fe5b60009182526020909120600990910201546001600160a01b0316868685818110612fc957fe5b9050602002013561536b565b600101612ecd565b5060078481548110612feb57fe5b60009182526020918290206009909102015460408051635b96faef60e11b81526024810185905260048101918252604481018690526001600160a01b039092169263b72df5de9287928792879282916064909101908690860280828437600081840152601f19601f820116905080830192505050945050505050600060405180830381600087803b15801561307f57600080fd5b505af1158015613093573d6000803e3d6000fd5b505050506000600785815481106130a657fe5b600091825260209182902060099091020154604080516370a0823160e01b815230600482015290516001600160a01b03909216926370a0823192602480840193829003018186803b1580156130fa57600080fd5b505afa15801561310e573d6000803e3d6000fd5b505050506040513d602081101561312457600080fd5b50516007805491925061313b918790811061110757fe5b50506001600655505050565b81816007858154811061315657fe5b906000526020600020906009020160010191906131749291906159a1565b50505050565b613182614f3f565b60055461010090046001600160a01b039081169116146131d7576040805162461bcd60e51b81526020600482018190526024820152600080516020615b31833981519152604482015290519081900360640190fd5b600c805460ff19166001179055604080516347cf98ff60e11b8152905182916001600160a01b03831691638f9f31fe91600480820192602092909190829003018186803b15801561322757600080fd5b505afa15801561323b573d6000803e3d6000fd5b505050506040513d602081101561325157600080fd5b50516132a4576040805162461bcd60e51b815260206004820152601a60248201527f66726f6d2773206d6967726174696f6e206e6f74206f70656e2e000000000000604482015290519081900360640190fd5b600c5461010090046001600160a01b0316156132fe576040805162461bcd60e51b815260206004820152601460248201527336b4b3b930ba34b7b71037b7363c9037b731b29760611b604482015290519081900360640190fd5b613307816154ce565b806001600160a01b03166310fe9ae86040518163ffffffff1660e01b815260040160206040518083038186803b15801561334057600080fd5b505afa158015613354573d6000803e3d6000fd5b505050506040513d602081101561336a57600080fd5b5051600a80546001600160a01b0319166001600160a01b039283161790819055604080516370a0823160e01b81528584166004820152905160009392909216916370a0823191602480820192602092909190829003018186803b1580156133d057600080fd5b505afa1580156133e4573d6000803e3d6000fd5b505050506040513d60208110156133fa57600080fd5b5051600a54909150613417906001600160a01b0316843084614c7f565b5050600c80546001600160a01b0390921661010002610100600160a81b0319909216919091179055565b60075490565b600c5460ff161561348d576040805162461bcd60e51b81526020600482015260146024820152600080516020615aa8833981519152604482015290519081900360640190fd5b60006007828154811061349c57fe5b90600052602060002090600902019050806008015442116134bd5750611de0565b6000613510600a60009054906101000a90046001600160a01b03166001600160a01b03166318160ddd6040518163ffffffff1660e01b815260040160206040518083038186803b158015611c2757600080fd5b9050600061353160095461188685600201548561528e90919063ffffffff16565b600a54604080516340c10f1960e01b81523060048201526024810184905290519293506001600160a01b03909116916340c10f19916044808201926020929091908290030181600087803b15801561358857600080fd5b505af115801561359c573d6000803e3d6000fd5b505050506040513d60208110156135b257600080fd5b50508254604080516370a0823160e01b815230600482015290516000926001600160a01b0316916370a08231916024808301926020929190829003018186803b1580156135fe57600080fd5b505afa158015613612573d6000803e3d6000fd5b505050506040513d602081101561362857600080fd5b50519050801561367f576000613657670de0b6b3a764000061188687600401548661528e90919063ffffffff16565b9050613678611dbb8361188684670de0b6b3a764000063ffffffff61528e16565b6003860155505b4284600801819055505050505050565b670de0b6b3a76400006136a8838363ffffffff61522d16565b11156136fb576040805162461bcd60e51b815260206004820152601860248201527f73756d2072617465206c6f776572207468656e20313030250000000000000000604482015290519081900360640190fd5b816007848154811061370957fe5b906000526020600020906009020160040181905550806007848154811061372c57fe5b906000526020600020906009020160050181905550505050565b6002600654141561378c576040805162461bcd60e51b815260206004820152601f6024820152600080516020615a3e833981519152604482015290519081900360640190fd5b6002600655600c5460ff16156137d7576040805162461bcd60e51b81526020600482015260146024820152600080516020615aa8833981519152604482015290519081900360640190fd5b60006001600160a01b0316600785815481106137ef57fe5b60009182526020909120600990910201546001600160a01b0316141561384a576040805162461bcd60e51b815260206004820152601a6024820152600080516020615af0833981519152604482015290519081900360640190fd5b61387c6007858154811061385a57fe5b60009182526020909120600990910201546001600160a01b0316333084614c7f565b6007848154811061388957fe5b60009182526020918290206009909102015460408051637706db7560e01b81526024810185905260048101918252604481018690526001600160a01b0390921692637706db759287928792879282916064909101908690860280828437600081840152601f19601f820116905080830192505050945050505050600060405180830381600087803b15801561391d57600080fd5b505af1158015613931573d6000803e3d6000fd5b5050505060006007858154811061394457fe5b600091825260209182902060099091020154604080516370a0823160e01b815230600482015290516001600160a01b03909216926370a0823192602480840193829003018186803b15801561399857600080fd5b505afa1580156139ac573d6000803e3d6000fd5b505050506040513d60208110156139c257600080fd5b5051905080156139dc576139dc6007868154811061110757fe5b60005b600786815481106139ec57fe5b90600052602060002090600902016001018054905081101561121b57600060078781548110613a1757fe5b90600052602060002090600902016001018281548110613a3357fe5b60009182526020918290200154604080516370a0823160e01b815230600482015290516001600160a01b03909216926370a0823192602480840193829003018186803b158015613a8257600080fd5b505afa158015613a96573d6000803e3d6000fd5b505050506040513d6020811015613aac57600080fd5b505160078054919250613adf9189908110613ac357fe5b906000526020600020906009020160010183815481106111ff57fe5b506001016139df565b613af0614f3f565b60055461010090046001600160a01b03908116911614613b45576040805162461bcd60e51b81526020600482018190526024820152600080516020615b31833981519152604482015290519081900360640190fd5b613b8881613b7c60078581548110613b5957fe5b90600052602060002090600902016002015460095461532990919063ffffffff16565b9063ffffffff61522d16565b6009819055508060078381548110613b9c57fe5b9060005260206000209060090201600201819055505050565b6001600160a01b03918216600090815260016020908152604080832093909416825291909152205490565b600c5461010090046001600160a01b031690565b600c5460ff1615613c3a576040805162461bcd60e51b81526020600482015260146024820152600080516020615aa8833981519152604482015290519081900360640190fd5b6000828152600b60209081526040808320338452909152812090805b600085815260086020526040902054811015613cb5576000858152600860205260409020805433919083908110613c8957fe5b6000918252602090912001546001600160a01b03161415613cad5760019150613cb5565b600101613c56565b5080613cea5760008481526008602090815260408220805460018101825590835291200180546001600160a01b031916331790555b613cf384611ad4565b600060078581548110613d0257fe5b600091825260209091208454600990920201915015613eb5576000613d4c8460020154611892670de0b6b3a76400006118868660030154896000015461528e90919063ffffffff16565b90508015613eb3576000613dd5670de0b6b3a76400006118868560040154600a60009054906101000a90046001600160a01b03166001600160a01b03166370a08231306040518263ffffffff1660e01b815260040180826001600160a01b03166001600160a01b0316815260200191505060206040518083038186803b15801561192757600080fd5b9050818110613e4a576000878152600b60209081526040808320338452909152902060040154613e0b908363ffffffff61522d16565b6000888152600b6020908152604080832033808552925290912060040191909155600a54613e45916001600160a01b039091169084614ddc565b613eb1565b6000878152600b60209081526040808320338452909152902060040154613e77908263ffffffff61522d16565b6000888152600b6020908152604080832033808552925290912060040191909155600a54613eb1916001600160a01b039091169083614ddc565b505b505b8315613ee7578054613ed2906001600160a01b0316333087614c7f565b8254613ee4908563ffffffff61522d16565b83555b60038101548354613f0b91670de0b6b3a7640000916118869163ffffffff61528e16565b6002840155604080518581529051869133917f90890809c654f11d6e72a28fa60149770a0d11ec6c92319d6ceb2bb0a4ea1a159181900360200190a35050505050565b60026006541415613f94576040805162461bcd60e51b815260206004820152601f6024820152600080516020615a3e833981519152604482015290519081900360640190fd5b6002600655600c5460ff1615613fdf576040805162461bcd60e51b81526020600482015260146024820152600080516020615aa8833981519152604482015290519081900360640190fd5b60006001600160a01b031660078581548110613ff757fe5b60009182526020909120600990910201546001600160a01b03161415614052576040805162461bcd60e51b815260206004820152601a6024820152600080516020615af0833981519152604482015290519081900360640190fd5b61406260078581548110610fb757fe5b6007848154811061406f57fe5b6000918252602091829020600990910201546040805163350376e360e21b81526004810187815260248201928352604482018690526001600160a01b039093169363d40ddb8c938893889388936064909101908590850280828437600081840152601f19601f820116905080830192505050945050505050600060405180830381600087803b15801561410157600080fd5b505af1158015614115573d6000803e3d6000fd5b5050505060006007858154811061412857fe5b600091825260209182902060099091020154604080516370a0823160e01b815230600482015290516001600160a01b03909216926370a0823192602480840193829003018186803b15801561417c57600080fd5b505afa158015614190573d6000803e3d6000fd5b505050506040513d60208110156141a657600080fd5b5051905080156141c0576141c06007868154811061110757fe5b60005b600786815481106141d057fe5b90600052602060002090600902016001018054905081101561121b576000600787815481106141fb57fe5b9060005260206000209060090201600101828154811061421757fe5b60009182526020918290200154604080516370a0823160e01b815230600482015290516001600160a01b03909216926370a0823192602480840193829003018186803b15801561426657600080fd5b505afa15801561427a573d6000803e3d6000fd5b505050506040513d602081101561429057600080fd5b5051600780549192506142a79189908110613ac357fe5b506001016141c3565b600260065414156142f6576040805162461bcd60e51b815260206004820152601f6024820152600080516020615a3e833981519152604482015290519081900360640190fd5b6002600655600c5460ff1615614341576040805162461bcd60e51b81526020600482015260146024820152600080516020615aa8833981519152604482015290519081900360640190fd5b60006001600160a01b03166007868154811061435957fe5b60009182526020909120600990910201546001600160a01b031614156143b4576040805162461bcd60e51b815260206004820152601a6024820152600080516020615af0833981519152604482015290519081900360640190fd5b6000805b6000878152600860205260409020548110156144175760008781526008602052604090208054339190839081106143eb57fe5b6000918252602090912001546001600160a01b0316141561440f5760019150614417565b6001016143b8565b508061444c5760008681526008602090815260408220805460018101825590835291200180546001600160a01b031916331790555b61445586613447565b61449e6007878154811061446557fe5b9060005260206000209060090201600101868154811061448157fe5b6000918252602090912001546001600160a01b0316333086614c7f565b614510600787815481106144ae57fe5b906000526020600020906009020160010186815481106144ca57fe5b600091825260209091200154600780546001600160a01b0390921691899081106144f057fe5b60009182526020909120600990910201546001600160a01b03168561536b565b6007868154811061451d57fe5b6000918252602082206009909102015460408051630b68372160e31b81526004810189905260248101889052604481018790526064810186905290516001600160a01b0390921692635b41b9089260848084019382900301818387803b15801561458657600080fd5b505af115801561459a573d6000803e3d6000fd5b505050506000600787815481106145ad57fe5b906000526020600020906009020160010185815481106145c957fe5b60009182526020918290200154604080516370a0823160e01b815230600482015290516001600160a01b03909216926370a0823192602480840193829003018186803b15801561461857600080fd5b505afa15801561462c573d6000803e3d6000fd5b505050506040513d602081101561464257600080fd5b5051905080614686576040805162461bcd60e51b815260206004820152600b60248201526a1b9bc818dbda5b881bdd5d60aa1b604482015290519081900360640190fd5b6146c661469d85611886848063ffffffff61528e16565b6000898152600b602090815260408083203384529091529020600101549063ffffffff61522d16565b6000888152600b602090815260408083203384529091528120600101919091556146fa85611886848063ffffffff61528e16565b11614745576040805162461bcd60e51b81526020600482015260166024820152750616363756d756c61746520706f696e747320697320360541b604482015290519081900360640190fd5b60006147c2670de0b6b3a764000061188660078b8154811061476357fe5b600091825260209182902060056009909202010154600a54604080516370a0823160e01b8152306004820152905192936001600160a01b03909216926370a0823192602480840193919291829003018186803b15801561192757600080fd5b9050600061484861480260078b815481106147d957fe5b906000526020600020906009020160060154613b7c89611886888961528e90919063ffffffff16565b6118866148178982888063ffffffff61528e16565b61280a8660078f8154811061482857fe5b90600052602060002090600902016007015461522d90919063ffffffff16565b9050818111156148f1576000898152600b6020908152604080832033845290915290206003015461487f908363ffffffff61522d16565b60008a8152600b6020908152604080832033808552925290912060030191909155600a546148b9916001600160a01b039091169084614ddc565b6148ca8260078b8154811061482857fe5b60078a815481106148d757fe5b90600052602060002090600902016007018190555061498c565b6000898152600b6020908152604080832033845290915290206003015461491e908263ffffffff61522d16565b60008a8152600b6020908152604080832033808552925290912060030191909155600a54614958916001600160a01b039091169083614ddc565b6149698160078b8154811061482857fe5b60078a8154811061497657fe5b9060005260206000209060090201600701819055505b6149d06149a387611886868063ffffffff61528e16565b60078b815481106149b057fe5b90600052602060002090600902016006015461522d90919063ffffffff16565b60078a815481106149dd57fe5b906000526020600020906009020160060181905550614a3a60078a81548110614a0257fe5b90600052602060002090600902016001018881548110614a1e57fe5b6000918252602090912001546001600160a01b03163385614ddc565b5050600160065550505050505050565b614a52614f3f565b60055461010090046001600160a01b03908116911614614aa7576040805162461bcd60e51b81526020600482018190526024820152600080516020615b31833981519152604482015290519081900360640190fd5b6001600160a01b038116614aec5760405162461bcd60e51b8152600401808060200182810382526026815260200180615a826026913960400191505060405180910390fd5b6005546040516001600160a01b0380841692610100900416907f8be0079c531659141344cd1fd0a4f28419497f9722a3daafe3b4186f6b6457e090600090a3600580546001600160a01b0390921661010002610100600160a81b0319909216919091179055565b600c5460009060ff1615614b9c576040805162461bcd60e51b81526020600482015260146024820152600080516020615aa8833981519152604482015290519081900360640190fd5b60006001600160a01b031660078681548110614bb457fe5b60009182526020909120600990910201546001600160a01b03161415614c0f576040805162461bcd60e51b815260206004820152601a6024820152600080516020615af0833981519152604482015290519081900360640190fd5b60078581548110614c1c57fe5b6000918252602091829020600990910201546040805163556d6e9f60e01b815260048101889052602481018790526044810186905290516001600160a01b039092169263556d6e9f92606480840193829003018186803b15801561208d57600080fd5b604080516001600160a01b0385811660248301528481166044830152606480830185905283518084039091018152608490920183526020820180516001600160e01b03166323b872dd60e01b17815292518251600094606094938a169392918291908083835b60208310614d045780518252601f199092019160209182019101614ce5565b6001836020036101000a0380198251168184511680821785525050505050509050019150506000604051808303816000865af19150503d8060008114614d66576040519150601f19603f3d011682016040523d82523d6000602084013e614d6b565b606091505b5091509150818015614d99575080511580614d995750808060200190516020811015614d9657600080fd5b50515b614dd45760405162461bcd60e51b8152600401808060200182810382526024815260200180615bbf6024913960400191505060405180910390fd5b505050505050565b604080516001600160a01b038481166024830152604480830185905283518084039091018152606490920183526020820180516001600160e01b031663a9059cbb60e01b178152925182516000946060949389169392918291908083835b60208310614e595780518252601f199092019160209182019101614e3a565b6001836020036101000a0380198251168184511680821785525050505050509050019150506000604051808303816000865af19150503d8060008114614ebb576040519150601f19603f3d011682016040523d82523d6000602084013e614ec0565b606091505b5091509150818015614eee575080511580614eee5750808060200190516020811015614eeb57600080fd5b50515b6121d8576040805162461bcd60e51b815260206004820152601f60248201527f5472616e7366657248656c7065723a205452414e534645525f4641494c454400604482015290519081900360640190fd5b3390565b6001600160a01b038316614f885760405162461bcd60e51b8152600401808060200182810382526024815260200180615a5e6024913960400191505060405180910390fd5b6001600160a01b038216614fcd5760405162461bcd60e51b8152600401808060200182810382526022815260200180615c0b6022913960400191505060405180910390fd5b6001600160a01b03808416600081815260016020908152604080832094871680845294825291829020859055815185815291517f8c5be1e5ebec7d5bd14f71427d1e84f3dd0314c0f7b2291e5b200ac8c7c3b9259281900390910190a3505050565b6001600160a01b0383166150745760405162461bcd60e51b8152600401808060200182810382526025815260200180615a196025913960400191505060405180910390fd5b6001600160a01b0382166150b95760405162461bcd60e51b8152600401808060200182810382526023815260200180615b776023913960400191505060405180910390fd5b6150c4838383612dc1565b61510781604051806060016040528060268152602001615b51602691396001600160a01b038616600090815260208190526040902054919063ffffffff61519616565b6001600160a01b03808516600090815260208190526040808220939093559084168152205461513c908263ffffffff61522d16565b6001600160a01b038084166000818152602081815260409182902094909455805185815290519193928716927fddf252ad1be2c89b69c2b068fc378daa952ba7f163c4a11628f55a4df523b3ef92918290030190a3505050565b600081848411156152255760405162461bcd60e51b81526004018080602001828103825283818151815260200191508051906020019080838360005b838110156151ea5781810151838201526020016151d2565b50505050905090810190601f1680156152175780820380516001836020036101000a031916815260200191505b509250505060405180910390fd5b505050900390565b600082820183811015615287576040805162461bcd60e51b815260206004820152601b60248201527f536166654d6174683a206164646974696f6e206f766572666c6f770000000000604482015290519081900360640190fd5b9392505050565b60008261529d575060006112d7565b828202828482816152aa57fe5b04146152875760405162461bcd60e51b8152600401808060200182810382526021815260200180615b106021913960400191505060405180910390fd5b600061528783836040518060400160405280601a81526020017f536166654d6174683a206469766973696f6e206279207a65726f0000000000008152506158d7565b600061528783836040518060400160405280601e81526020017f536166654d6174683a207375627472616374696f6e206f766572666c6f770000815250615196565b604080516001600160a01b038481166024830152604480830185905283518084039091018152606490920183526020820180516001600160e01b031663095ea7b360e01b178152925182516000946060949389169392918291908083835b602083106153e85780518252601f1990920191602091820191016153c9565b6001836020036101000a0380198251168184511680821785525050505050509050019150506000604051808303816000865af19150503d806000811461544a576040519150601f19603f3d011682016040523d82523d6000602084013e61544f565b606091505b509150915081801561547d57508051158061547d575080806020019051602081101561547a57600080fd5b50515b6121d8576040805162461bcd60e51b815260206004820152601e60248201527f5472616e7366657248656c7065723a20415050524f56455f4641494c45440000604482015290519081900360640190fd5b6000606080825b846001600160a01b031663ce883cdb6040518163ffffffff1660e01b815260040160206040518083038186803b15801561550e57600080fd5b505afa158015615522573d6000803e3d6000fd5b505050506040513d602081101561553857600080fd5b50518110156121d857846001600160a01b0316632f380b35826040518263ffffffff1660e01b81526004018082815260200191505060006040518083038186803b15801561558557600080fd5b505afa158015615599573d6000803e3d6000fd5b505050506040513d6000823e601f3d908101601f191682016040526101408110156155c357600080fd5b815160208301805160405192949293830192919084600160201b8211156155e957600080fd5b9083019060208201858111156155fe57600080fd5b82518660208202830111600160201b8211171561561a57600080fd5b82525081516020918201928201910280838360005b8381101561564757818101518382015260200161562f565b505050509190910160408181526020840151908401516060850151608086015160a087015160c088015160e08901516101009099018051969b959a94999398509196909592949093909290919084600160201b8211156156a657600080fd5b9083019060208201858111156156bb57600080fd5b82518660208202830111600160201b821117156156d757600080fd5b82525081516020918201928201910280838360005b838110156157045781810151838201526020016156ec565b5050505091909101604052505082519b9f50999d50909b50615751998c995060009850151596506157389550505050505057fe5b602002602001015160095461522d90919063ffffffff16565b6009819055506007604051806101200160405280866001600160a01b031681526020018581526020018460008151811061578757fe5b60200260200101518152602001846001815181106157a157fe5b60200260200101518152602001846002815181106157bb57fe5b60200260200101518152602001846003815181106157d557fe5b60200260200101518152602001846004815181106157ef57fe5b602002602001015181526020018460058151811061580957fe5b602002602001015181526020018460068151811061582357fe5b602090810291909101810151909152825460018082018555600094855293829020835160099092020180546001600160a01b0319166001600160a01b03909216919091178155828201518051939491936158859392850192919091019061593c565b5060408201516002820155606082015160038201556080820151600482015560a0820151600582015560c0820151600682015560e08201516007820155610100909101516008909101556001016154d5565b600081836159265760405162461bcd60e51b81526020600482018181528351602484015283519092839260449091019190850190808383600083156151ea5781810151838201526020016151d2565b50600083858161593257fe5b0495945050505050565b828054828255906000526020600020908101928215615991579160200282015b8281111561599157825182546001600160a01b0319166001600160a01b0390911617825560209092019160019091019061595c565b5061599d9291506159f4565b5090565b828054828255906000526020600020908101928215615991579160200282015b828111156159915781546001600160a01b0319166001600160a01b038435161782556020909201916001909101906159c1565b6112bc91905b8082111561599d5780546001600160a01b03191681556001016159fa56fe42455032303a207472616e736665722066726f6d20746865207a65726f20616464726573735265656e7472616e637947756172643a207265656e7472616e742063616c6c0042455032303a20617070726f76652066726f6d20746865207a65726f20616464726573734f776e61626c653a206e6577206f776e657220697320746865207a65726f206164647265737361206d6967726174696f6e206973206f70656e2e00000000000000000000000042455032303a207472616e7366657220616d6f756e74206578636565647320616c6c6f77616e6365616464726573732830292063616e2774206265206120706f6f6c000000000000536166654d6174683a206d756c7469706c69636174696f6e206f766572666c6f774f776e61626c653a2063616c6c6572206973206e6f7420746865206f776e657242455032303a207472616e7366657220616d6f756e7420657863656564732062616c616e636542455032303a207472616e7366657220746f20746865207a65726f206164647265737342455032303a2064656372656173656420616c6c6f77616e63652062656c6f77207a65726f5472616e7366657248656c7065723a205452414e534645525f46524f4d5f4641494c45446f6e6c7920616c6c6f7720746f20617070726f766520746f6b656e20746f2061206d696e7465722e42455032303a20617070726f766520746f20746865207a65726f2061646472657373a2646970667358221220626cc927cdf2a690afaebfd023c781923ef7b8917fa5a58a30bc956edc0626a164736f6c634300060600334f776e61626c653a206e6577206f776e657220697320746865207a65726f20616464726573738be0079c531659141344cd1fd0a4f28419497f9722a3daafe3b4186f6b6457e0",
  "immutableReferences": {},
  "source": "pragma solidity ^0.6.0;\n\nimport \"./BEP20.sol\";\nimport \"./interfaces/IBEP20.sol\";\nimport \"./interfaces/IBStablePool.sol\";\nimport \"./interfaces/IBStableProxy.sol\";\nimport \"./interfaces/IBStableToken.sol\";\nimport \"@openzeppelin/contracts/access/Ownable.sol\";\nimport \"@openzeppelin/contracts/math/SafeMath.sol\";\nimport \"@openzeppelin/contracts/utils/ReentrancyGuard.sol\";\nimport \"./lib/TransferHelper.sol\";\n\n// Proxy\ncontract BStableProxy is IBStableProxy, BEP20, Ownable, ReentrancyGuard {\n    using SafeMath for uint256;\n\n    struct PoolInfo {\n        address poolAddress;\n        address[] coins;\n        uint256 allocPoint;\n        uint256 accTokenPerShare;\n        uint256 shareRewardRate; //  share reward percent of total release amount. wei\n        uint256 swapRewardRate; //  swap reward percent of total release amount.  wei\n        uint256 totalVolAccPoints; // total volume accumulate points. wei, \n        uint256 totalVolReward; // total volume reword. wei \n        uint256 lastUpdateTime;\n    }\n    struct UserInfo {\n        uint256 amount; // How many LP tokens the user has provided.\n        uint256 volume; // swap volume.\n        uint256 rewardDebt; // Reward debt. See explanation below.\n        uint256 volReward;\n        uint256 farmingReward;\n    }\n\n    event Deposit(address indexed user, uint256 indexed pid, uint256 amount);\n    event Withdraw(address indexed user, uint256 indexed pid, uint256 amount);\n    event EmergencyWithdraw(\n        address indexed user,\n        uint256 indexed pid,\n        uint256 amount\n    );\n\n    // state data\n    PoolInfo[] pools;\n    mapping(uint256 => address[]) poolUsers;\n    uint256 totalAllocPoint = 0;\n    address tokenAddress;\n    mapping(uint256 => mapping(address => UserInfo)) userInfo;\n\n    bool _openMigration = false;\n    address migrateFrom;\n\n    modifier noOpenMigration() {\n        require(!_openMigration, \"a migration is open.\");\n        _;\n    }\n\n    constructor(\n        string memory _name,\n        string memory _symbol,\n        address _tokenAddress\n    ) public BEP20(_name, _symbol) {\n        transferOwnership(msg.sender);\n        tokenAddress = _tokenAddress;\n    }\n\n    function getPoolInfo(uint256 _pid)\n        public\n        view\n        override\n        returns (\n            address _poolAddress,\n            address[] memory _coins,\n            uint256 _allocPoint,\n            uint256 _accTokenPerShare,\n            uint256 _shareRewardRate,\n            uint256 _swapRewardRate,\n            uint256 _totalVolAccPoints,\n            uint256 _totalVolReward,\n            uint256 _lastUpdateTime,\n            uint256[] memory arrData\n        )\n    {\n        arrData = new uint256[](7);\n        _poolAddress = pools[_pid].poolAddress;\n        _coins = pools[_pid].coins;\n        _allocPoint = pools[_pid].allocPoint;\n        arrData[0] = pools[_pid].allocPoint;\n        _accTokenPerShare = pools[_pid].accTokenPerShare;\n        arrData[1] = pools[_pid].accTokenPerShare;\n        _shareRewardRate = pools[_pid].shareRewardRate;\n        arrData[2] = pools[_pid].shareRewardRate;\n        _swapRewardRate = pools[_pid].swapRewardRate;\n        arrData[3] = pools[_pid].swapRewardRate;\n        _totalVolAccPoints = pools[_pid].totalVolAccPoints;\n        arrData[4] = pools[_pid].totalVolAccPoints;\n        _totalVolReward = pools[_pid].totalVolReward;\n        arrData[5] = pools[_pid].totalVolReward;\n        _lastUpdateTime = pools[_pid].lastUpdateTime;\n        arrData[6] = pools[_pid].lastUpdateTime;\n    }\n\n    function getTokenAddress() public view override returns (address taddress) {\n        taddress = tokenAddress;\n    }\n\n    function getUserInfo(uint256 _pid, address user)\n        public\n        view\n        override\n        returns (\n            uint256 _amount,\n            uint256 _volume,\n            uint256 _rewardDebt,\n            uint256 _volReward,\n            uint256 _farmingReward\n        )\n    {\n        _amount = userInfo[_pid][user].amount;\n        _volume = userInfo[_pid][user].volume;\n        _rewardDebt = userInfo[_pid][user].rewardDebt;\n        _volReward = userInfo[_pid][user].volReward;\n        _farmingReward = userInfo[_pid][user].farmingReward;\n    }\n\n    function getPoolUsers(uint256 _pid)\n        public\n        view\n        override\n        returns (address[] memory _users)\n    {\n        _users = poolUsers[_pid];\n    }\n\n    function getPoolsLength() public view override returns (uint256 l) {\n        l = pools.length;\n    }\n\n    function getTotalAllocPoint() public view override returns (uint256 r) {\n        r = totalAllocPoint;\n    }\n\n    function isMigrationOpen() external view override returns (bool r) {\n        r = _openMigration;\n    }\n\n    function getMigrateFrom() public view override returns (address _a) {\n        _a = migrateFrom;\n    }\n\n    function A(uint256 _pid)\n        external\n        view\n        noOpenMigration\n        returns (uint256 A1)\n    {\n        require(\n            pools[_pid].poolAddress != address(0),\n            \"address(0) can't be a pool\"\n        );\n        A1 = IBStablePool(pools[_pid].poolAddress).A();\n    }\n\n    function get_virtual_price(uint256 _pid)\n        external\n        view\n        noOpenMigration\n        returns (uint256 price)\n    {\n        require(\n            pools[_pid].poolAddress != address(0),\n            \"address(0) can't be a pool\"\n        );\n        price = IBStablePool(pools[_pid].poolAddress).get_virtual_price();\n    }\n\n    function calc_token_amount(\n        uint256 _pid,\n        uint256[] calldata amounts,\n        bool deposit\n    ) external view noOpenMigration returns (uint256 result) {\n        require(\n            pools[_pid].poolAddress != address(0),\n            \"address(0) can't be a pool\"\n        );\n        result = IBStablePool(pools[_pid].poolAddress).calc_token_amount(\n            amounts,\n            deposit\n        );\n    }\n\n    function add_liquidity(\n        uint256 _pid,\n        uint256[] calldata amounts,\n        uint256 min_mint_amount\n    ) external nonReentrant noOpenMigration {\n        require(\n            pools[_pid].poolAddress != address(0),\n            \"address(0) can't be a pool\"\n        );\n        for (uint256 i = 0; i < pools[_pid].coins.length; i++) {\n            TransferHelper.safeTransferFrom(\n                pools[_pid].coins[i],\n                msg.sender,\n                address(this),\n                amounts[i]\n            );\n            TransferHelper.safeApprove(\n                pools[_pid].coins[i],\n                pools[_pid].poolAddress,\n                amounts[i]\n            );\n        }\n        IBStablePool(pools[_pid].poolAddress).add_liquidity(\n            amounts,\n            min_mint_amount\n        );\n        uint256 lpBalance =\n            IBStablePool(pools[_pid].poolAddress).balanceOf(address(this));\n        TransferHelper.safeTransfer(\n            pools[_pid].poolAddress,\n            msg.sender,\n            lpBalance\n        );\n    }\n\n    function get_dy(\n        uint256 _pid,\n        uint256 i,\n        uint256 j,\n        uint256 dx\n    ) external view noOpenMigration returns (uint256 result) {\n        require(\n            pools[_pid].poolAddress != address(0),\n            \"address(0) can't be a pool\"\n        );\n        result = IBStablePool(pools[_pid].poolAddress).get_dy(i, j, dx);\n    }\n\n    function get_dy_underlying(\n        uint256 _pid,\n        uint256 i,\n        uint256 j,\n        uint256 dx\n    ) external view noOpenMigration returns (uint256 result) {\n        require(\n            pools[_pid].poolAddress != address(0),\n            \"address(0) can't be a pool\"\n        );\n        result = IBStablePool(pools[_pid].poolAddress).get_dy_underlying(\n            i,\n            j,\n            dx\n        );\n    }\n\n    function exchange(\n        uint256 _pid,\n        uint256 i,\n        uint256 j,\n        uint256 dx,\n        uint256 min_dy\n    ) external nonReentrant noOpenMigration {\n        require(\n            pools[_pid].poolAddress != address(0),\n            \"address(0) can't be a pool\"\n        );\n        bool exists = false;\n        for (uint256 index = 0; index < poolUsers[_pid].length; index++) {\n            if (poolUsers[_pid][index] == msg.sender) {\n                exists = true;\n                break;\n            }\n        }\n        if (!exists) {\n            poolUsers[_pid].push(msg.sender);\n        }\n        updatePoolForExchange(_pid);\n        TransferHelper.safeTransferFrom(\n            pools[_pid].coins[i],\n            msg.sender,\n            address(this),\n            dx\n        );\n        TransferHelper.safeApprove(\n            pools[_pid].coins[i],\n            pools[_pid].poolAddress,\n            dx\n        );\n        IBStablePool(pools[_pid].poolAddress).exchange(i, j, dx, min_dy);\n        uint256 dy = IBEP20(pools[_pid].coins[j]).balanceOf(address(this));\n        require(dy > 0, \"no coin out\");\n        userInfo[_pid][msg.sender].volume = userInfo[_pid][msg.sender]\n            .volume\n            .add(dy.mul(dy).div(dx));\n        require(dy.mul(dy).div(dx) > 0, \"accumulate points is 0\");\n        uint256 tokenAmt =\n            IBEP20(tokenAddress)\n                .balanceOf(address(this))\n                .mul(pools[_pid].swapRewardRate)\n                .div(10**18);\n        uint256 rewardAmt =\n            pools[_pid].totalVolReward.add(tokenAmt).mul(dy.mul(dy).div(dx)).div(\n                dy.mul(dy).div(dx).add(pools[_pid].totalVolAccPoints)\n            );\n        if (rewardAmt > tokenAmt) {\n            userInfo[_pid][msg.sender].volReward = userInfo[_pid][msg.sender]\n                .volReward\n                .add(tokenAmt);\n            TransferHelper.safeTransfer(tokenAddress, msg.sender, tokenAmt);\n            pools[_pid].totalVolReward = pools[_pid].totalVolReward.add(\n                tokenAmt\n            );\n        } else {\n            userInfo[_pid][msg.sender].volReward = userInfo[_pid][msg.sender]\n                .volReward\n                .add(rewardAmt);\n            TransferHelper.safeTransfer(tokenAddress, msg.sender, rewardAmt);\n            pools[_pid].totalVolReward = pools[_pid].totalVolReward.add(\n                rewardAmt\n            );\n        }\n        pools[_pid].totalVolAccPoints = pools[_pid].totalVolAccPoints.add(\n            dy.mul(dy).div(dx)\n        );\n        TransferHelper.safeTransfer(pools[_pid].coins[j], msg.sender, dy);\n    }\n\n    function remove_liquidity(\n        uint256 _pid,\n        uint256 _amount,\n        uint256[] calldata min_amounts\n    ) external nonReentrant noOpenMigration {\n        require(\n            pools[_pid].poolAddress != address(0),\n            \"address(0) can't be a pool\"\n        );\n        TransferHelper.safeTransferFrom(\n            pools[_pid].poolAddress,\n            msg.sender,\n            address(this),\n            _amount\n        );\n        IBStablePool(pools[_pid].poolAddress).remove_liquidity(\n            _amount,\n            min_amounts\n        );\n        uint256 lpBalance =\n            IBStablePool(pools[_pid].poolAddress).balanceOf(address(this));\n        if (lpBalance > 0) {\n            TransferHelper.safeTransfer(\n                pools[_pid].poolAddress,\n                msg.sender,\n                lpBalance\n            );\n        }\n        for (uint256 i = 0; i < pools[_pid].coins.length; i++) {\n            uint256 balance =\n                IBEP20(pools[_pid].coins[i]).balanceOf(address(this));\n            TransferHelper.safeTransfer(\n                pools[_pid].coins[i],\n                msg.sender,\n                balance\n            );\n        }\n    }\n\n    function remove_liquidity_imbalance(\n        uint256 _pid,\n        uint256[] calldata amounts,\n        uint256 max_burn_amount\n    ) external nonReentrant noOpenMigration {\n        require(\n            pools[_pid].poolAddress != address(0),\n            \"address(0) can't be a pool\"\n        );\n        TransferHelper.safeTransferFrom(\n            pools[_pid].poolAddress,\n            msg.sender,\n            address(this),\n            max_burn_amount\n        );\n        IBStablePool(pools[_pid].poolAddress).remove_liquidity_imbalance(\n            amounts,\n            max_burn_amount\n        );\n        uint256 lpBalance =\n            IBStablePool(pools[_pid].poolAddress).balanceOf(address(this));\n        if (lpBalance > 0) {\n            TransferHelper.safeTransfer(\n                pools[_pid].poolAddress,\n                msg.sender,\n                lpBalance\n            );\n        }\n        for (uint256 i = 0; i < pools[_pid].coins.length; i++) {\n            uint256 balance =\n                IBEP20(pools[_pid].coins[i]).balanceOf(address(this));\n            TransferHelper.safeTransfer(\n                pools[_pid].coins[i],\n                msg.sender,\n                balance\n            );\n        }\n    }\n\n    function calc_withdraw_one_coin(\n        uint256 _pid,\n        uint256 _token_amount,\n        uint256 i\n    ) external view noOpenMigration returns (uint256 result) {\n        require(\n            pools[_pid].poolAddress != address(0),\n            \"address(0) can't be a pool\"\n        );\n        result = IBStablePool(pools[_pid].poolAddress).calc_withdraw_one_coin(\n            _token_amount,\n            i\n        );\n    }\n\n    function remove_liquidity_one_coin(\n        uint256 _pid,\n        uint256 _token_amount,\n        uint256 i,\n        uint256 min_amount\n    ) external nonReentrant noOpenMigration {\n        require(\n            pools[_pid].poolAddress != address(0),\n            \"address(0) can't be a pool\"\n        );\n        TransferHelper.safeTransferFrom(\n            pools[_pid].poolAddress,\n            msg.sender,\n            address(this),\n            _token_amount\n        );\n        IBStablePool(pools[_pid].poolAddress).remove_liquidity_one_coin(\n            _token_amount,\n            i,\n            min_amount\n        );\n        uint256 lpBalance =\n            IBStablePool(pools[_pid].poolAddress).balanceOf(address(this));\n        if (lpBalance > 0) {\n            TransferHelper.safeTransfer(\n                pools[_pid].poolAddress,\n                msg.sender,\n                lpBalance\n            );\n        }\n        uint256 iBalance =\n            IBEP20(pools[_pid].coins[i]).balanceOf(address(this));\n        TransferHelper.safeTransfer(pools[_pid].coins[i], msg.sender, iBalance);\n    }\n\n    function getPoolAddress(uint256 _pid)\n        external\n        view\n        noOpenMigration\n        returns (address _poolAddress)\n    {\n        _poolAddress = pools[_pid].poolAddress;\n    }\n\n    function pendingReward(uint256 _pid, address _user)\n        external\n        view\n        noOpenMigration\n        returns (uint256)\n    {\n        PoolInfo storage pool = pools[_pid];\n        UserInfo storage user = userInfo[_pid][_user];\n        uint256 accSushiPerShare = pool.accTokenPerShare;\n        uint256 lpSupply = IBEP20(pool.poolAddress).balanceOf(address(this));\n        if (lpSupply != 0) {\n            uint256 releaseAmt =\n                IBStableToken(tokenAddress).availableSupply().sub(\n                    IBStableToken(tokenAddress).totalSupply()\n                );\n            uint256 reward =\n                releaseAmt\n                    .mul(pool.shareRewardRate)\n                    .div(10**18)\n                    .mul(pool.allocPoint)\n                    .div(totalAllocPoint);\n            accSushiPerShare = accSushiPerShare.add(\n                reward.mul(10**18).div(lpSupply)\n            );\n        }\n        return\n            user.amount.mul(accSushiPerShare).div(10**18).sub(user.rewardDebt);\n    }\n\n    function massUpdatePools() external noOpenMigration {\n        uint256 length = pools.length;\n        for (uint256 pid = 0; pid < length; ++pid) {\n            updatePool(pid);\n        }\n    }\n\n    function updatePool(uint256 _pid) public noOpenMigration {\n        PoolInfo storage pool = pools[_pid];\n        if (block.timestamp <= pool.lastUpdateTime) {\n            return;\n        }\n        uint256 lpSupply = IBEP20(pool.poolAddress).balanceOf(address(this));\n        if (lpSupply == 0) {\n            pool.lastUpdateTime = block.timestamp;\n            return;\n        }\n        uint256 releaseAmt =\n            IBStableToken(tokenAddress).availableSupply().sub(\n                IBStableToken(tokenAddress).totalSupply()\n            );\n        uint256 mintAmt = releaseAmt.mul(pool.allocPoint).div(totalAllocPoint);\n        uint256 reward = mintAmt.mul(pool.shareRewardRate).div(10**18);\n        IBStableToken(tokenAddress).mint(address(this), mintAmt);\n        pool.accTokenPerShare = pool.accTokenPerShare.add(\n            reward.mul(10**18).div(lpSupply)\n        );\n        pool.lastUpdateTime = block.timestamp;\n    }\n\n    function updatePoolForExchange(uint256 _pid) public noOpenMigration {\n        PoolInfo storage pool = pools[_pid];\n        if (block.timestamp <= pool.lastUpdateTime) {\n            return;\n        }\n        uint256 releaseAmt =\n            IBStableToken(tokenAddress).availableSupply().sub(\n                IBStableToken(tokenAddress).totalSupply()\n            );\n        uint256 mintAmt = releaseAmt.mul(pool.allocPoint).div(totalAllocPoint);\n        IBStableToken(tokenAddress).mint(address(this), mintAmt);\n        uint256 lpSupply = IBEP20(pool.poolAddress).balanceOf(address(this));\n        if (lpSupply > 0) {\n            uint256 reward = mintAmt.mul(pool.shareRewardRate).div(10**18);\n            pool.accTokenPerShare = pool.accTokenPerShare.add(\n                reward.mul(10**18).div(lpSupply)\n            );\n        }\n        pool.lastUpdateTime = block.timestamp;\n    }\n\n    function deposit(uint256 _pid, uint256 _amount) external noOpenMigration {\n        UserInfo storage user = userInfo[_pid][msg.sender];\n        bool exists = false;\n        for (uint256 i = 0; i < poolUsers[_pid].length; i++) {\n            if (poolUsers[_pid][i] == msg.sender) {\n                exists = true;\n                break;\n            }\n        }\n        if (!exists) {\n            poolUsers[_pid].push(msg.sender);\n        }\n        updatePool(_pid);\n        PoolInfo storage pool = pools[_pid];\n        if (user.amount > 0) {\n            uint256 pending =\n                user.amount.mul(pool.accTokenPerShare).div(10**18).sub(\n                    user.rewardDebt\n                );\n            if (pending > 0) {\n                uint256 tokenBal =\n                    IBEP20(tokenAddress)\n                        .balanceOf(address(this))\n                        .mul(pool.shareRewardRate)\n                        .div(10**18);\n                if (tokenBal >= pending) {\n                    userInfo[_pid][msg.sender].farmingReward = userInfo[_pid][\n                        msg.sender\n                    ]\n                        .farmingReward\n                        .add(pending);\n                    TransferHelper.safeTransfer(\n                        tokenAddress,\n                        msg.sender,\n                        pending\n                    );\n                } else {\n                    userInfo[_pid][msg.sender].farmingReward = userInfo[_pid][\n                        msg.sender\n                    ]\n                        .farmingReward\n                        .add(tokenBal);\n                    TransferHelper.safeTransfer(\n                        tokenAddress,\n                        msg.sender,\n                        tokenBal\n                    );\n                }\n            }\n        }\n        if (_amount > 0) {\n            TransferHelper.safeTransferFrom(\n                pool.poolAddress,\n                msg.sender,\n                address(this),\n                _amount\n            );\n            user.amount = user.amount.add(_amount);\n        }\n        user.rewardDebt = user.amount.mul(pool.accTokenPerShare).div(10**18);\n        emit Deposit(msg.sender, _pid, _amount);\n    }\n\n    function withdraw(uint256 _pid, uint256 _amount) external noOpenMigration {\n        UserInfo storage user = userInfo[_pid][msg.sender];\n        require(user.amount >= _amount, \"withdraw: not good\");\n        updatePool(_pid);\n        PoolInfo storage pool = pools[_pid];\n        uint256 pending =\n            user.amount.mul(pool.accTokenPerShare).div(10**18).sub(\n                user.rewardDebt\n            );\n        if (pending > 0) {\n            uint256 tokenBal =\n                IBEP20(tokenAddress)\n                    .balanceOf(address(this))\n                    .mul(pool.shareRewardRate)\n                    .div(10**18);\n            if (tokenBal >= pending) {\n                userInfo[_pid][msg.sender].farmingReward = userInfo[_pid][\n                    msg.sender\n                ]\n                    .farmingReward\n                    .add(pending);\n                TransferHelper.safeTransfer(tokenAddress, msg.sender, pending);\n            } else {\n                userInfo[_pid][msg.sender].farmingReward = userInfo[_pid][\n                    msg.sender\n                ]\n                    .farmingReward\n                    .add(tokenBal);\n                TransferHelper.safeTransfer(tokenAddress, msg.sender, tokenBal);\n            }\n        }\n        if (_amount > 0) {\n            user.amount = user.amount.sub(_amount);\n            TransferHelper.safeTransfer(\n                pool.poolAddress,\n                address(msg.sender),\n                _amount\n            );\n        }\n        user.rewardDebt = user.amount.mul(pool.accTokenPerShare).div(10**18);\n        emit Withdraw(msg.sender, _pid, _amount);\n    }\n\n    function emergencyWithdraw(uint256 _pid) external noOpenMigration {\n        PoolInfo storage pool = pools[_pid];\n        UserInfo storage user = userInfo[_pid][msg.sender];\n        uint256 amount = user.amount;\n        user.amount = 0;\n        user.rewardDebt = 0;\n        TransferHelper.safeTransfer(\n            pool.poolAddress,\n            address(msg.sender),\n            amount\n        );\n        emit EmergencyWithdraw(msg.sender, _pid, amount);\n    }\n\n    function openMigration() external onlyOwner {\n        _openMigration = true;\n    }\n\n    function closeMigration() external onlyOwner {\n        _openMigration = false;\n    }\n\n    function addPool(\n        address _poolAddress,\n        address[] calldata _coins,\n        uint256 _allocPoint\n    ) external onlyOwner {\n        totalAllocPoint = totalAllocPoint.add(_allocPoint);\n        pools.push(\n            PoolInfo({\n                poolAddress: _poolAddress,\n                coins: _coins,\n                allocPoint: _allocPoint,\n                accTokenPerShare: 0,\n                shareRewardRate: 500_000_000_000_000_000,\n                swapRewardRate: 500_000_000_000_000_000,\n                totalVolAccPoints: 0,\n                totalVolReward: 0,\n                lastUpdateTime: block.timestamp\n            })\n        );\n    }\n\n    function setPoolRewardRate(\n        uint256 _pid,\n        uint256 shareRate,\n        uint256 swapRate\n    ) external {\n        require(\n            shareRate.add(swapRate) <= 1_000_000_000_000_000_000,\n            \"sum rate lower then 100%\"\n        );\n        pools[_pid].shareRewardRate = shareRate;\n        pools[_pid].swapRewardRate = swapRate;\n    }\n\n    function setPoolCoins(uint256 _pid, address[] calldata _coins) external {\n        pools[_pid].coins = _coins;\n    }\n\n    function setPoolAllocPoint(uint256 _pid, uint256 _allocPoint)\n        external\n        onlyOwner\n    {\n        totalAllocPoint = totalAllocPoint.sub(pools[_pid].allocPoint).add(\n            _allocPoint\n        );\n        pools[_pid].allocPoint = _allocPoint;\n    }\n\n    function migratePoolInfo(IBStableProxy from) private {\n        address _poolAddress;\n        address[] memory _coins;\n        uint256[] memory _data;\n        for (uint256 pid = 0; pid < from.getPoolsLength(); pid++) {\n            (_poolAddress, _coins, , , , , , , , _data) = from.getPoolInfo(pid);\n            totalAllocPoint = totalAllocPoint.add(_data[0]);\n            pools.push(\n                PoolInfo({\n                    poolAddress: _poolAddress,\n                    coins: _coins,\n                    allocPoint: _data[0],\n                    accTokenPerShare: _data[1],\n                    shareRewardRate: _data[2],\n                    swapRewardRate: _data[3],\n                    totalVolAccPoints: _data[4],\n                    totalVolReward: _data[5],\n                    lastUpdateTime: _data[6]\n                })\n            );\n        }\n    }\n\n    function transferMinterTo(address to) external override onlyOwner {\n        require(_openMigration, \"on allow when migration is open\");\n        IBStableToken(tokenAddress).transferMinterTo(to);\n    }\n\n    function approveTokenTo(address nMinter) external override onlyOwner {\n        IBStableToken token = IBStableToken(tokenAddress);\n        require(\n            token.getMinter() == nMinter,\n            \"only allow to approve token to a minter.\"\n        );\n        uint256 balance = token.balanceOf(address(this));\n        TransferHelper.safeApprove(tokenAddress, nMinter, balance);\n    }\n\n    function migrate(address _from) external onlyOwner {\n        _openMigration = true;\n        IBStableProxy from = IBStableProxy(_from);\n        require(from.isMigrationOpen(), \"from's migration not open.\");\n        require(migrateFrom == address(0), \"migration only once.\");\n        migratePoolInfo(from);\n        tokenAddress = from.getTokenAddress();\n        uint256 tokenBal = IBEP20(tokenAddress).balanceOf(_from);\n        TransferHelper.safeTransferFrom(\n            tokenAddress,\n            _from,\n            address(this),\n            tokenBal\n        );\n\n        migrateFrom = _from;\n    }\n}\n",
  "sourcePath": "/Users/admin/github.com/holynull/OKExChain-contracts/contracts/BStableProxy.sol",
  "compiler": {
    "name": "solc",
    "version": "0.6.6+commit.6c089d02.Emscripten.clang"
  },
  "schemaVersion": "3.3.3",
  "updatedAt": "2021-01-06T08:24:08.024Z",
  "devdoc": {
    "methods": {
      "allowance(address,address)": {
        "details": "See {IBEP20-allowance}."
      },
      "approve(address,uint256)": {
        "details": "See {IBEP20-approve}.     * Requirements:     * - `spender` cannot be the zero address."
      },
      "balanceOf(address)": {
        "details": "See {IBEP20-balanceOf}."
      },
      "decimals()": {
        "details": "Returns the number of decimals used to get its user representation. For example, if `decimals` equals `2`, a balance of `505` tokens should be displayed to a user as `5,05` (`505 / 10 ** 2`).     * Tokens usually opt for a value of 18, imitating the relationship between Ether and Wei. This is the value {BEP20} uses, unless {_setupDecimals} is called.     * NOTE: This information is only used for _display_ purposes: it in no way affects any of the arithmetic of the contract, including {IBEP20-balanceOf} and {IBEP20-transfer}."
      },
      "decreaseAllowance(address,uint256)": {
        "details": "Atomically decreases the allowance granted to `spender` by the caller.     * This is an alternative to {approve} that can be used as a mitigation for problems described in {IBEP20-approve}.     * Emits an {Approval} event indicating the updated allowance.     * Requirements:     * - `spender` cannot be the zero address. - `spender` must have allowance for the caller of at least `subtractedValue`."
      },
      "increaseAllowance(address,uint256)": {
        "details": "Atomically increases the allowance granted to `spender` by the caller.     * This is an alternative to {approve} that can be used as a mitigation for problems described in {IBEP20-approve}.     * Emits an {Approval} event indicating the updated allowance.     * Requirements:     * - `spender` cannot be the zero address."
      },
      "name()": {
        "details": "Returns the name of the token."
      },
      "owner()": {
        "details": "Returns the address of the current owner."
      },
      "renounceOwnership()": {
        "details": "Leaves the contract without owner. It will not be possible to call `onlyOwner` functions anymore. Can only be called by the current owner.     * NOTE: Renouncing ownership will leave the contract without an owner, thereby removing any functionality that is only available to the owner."
      },
      "symbol()": {
        "details": "Returns the symbol of the token, usually a shorter version of the name."
      },
      "totalSupply()": {
        "details": "See {IBEP20-totalSupply}."
      },
      "transfer(address,uint256)": {
        "details": "See {IBEP20-transfer}.     * Requirements:     * - `recipient` cannot be the zero address. - the caller must have a balance of at least `amount`."
      },
      "transferFrom(address,address,uint256)": {
        "details": "See {IBEP20-transferFrom}.     * Emits an {Approval} event indicating the updated allowance. This is not required by the EIP. See the note at the beginning of {BEP20};     * Requirements: - `sender` and `recipient` cannot be the zero address. - `sender` must have a balance of at least `amount`. - the caller must have allowance for ``sender``'s tokens of at least `amount`."
      },
      "transferOwnership(address)": {
        "details": "Transfers ownership of the contract to a new account (`newOwner`). Can only be called by the current owner."
      }
    }
  },
  "userdoc": {
    "methods": {}
  }
}