{
  "contractName": "SmartSwapPool",
  "abi": [
    {
      "inputs": [],
      "stateMutability": "nonpayable",
      "type": "constructor"
    },
    {
      "anonymous": false,
      "inputs": [
        {
          "indexed": true,
          "internalType": "address",
          "name": "owner",
          "type": "address"
        },
        {
          "indexed": true,
          "internalType": "address",
          "name": "spender",
          "type": "address"
        },
        {
          "indexed": false,
          "internalType": "uint256",
          "name": "value",
          "type": "uint256"
        }
      ],
      "name": "Approval",
      "type": "event"
    },
    {
      "anonymous": false,
      "inputs": [
        {
          "indexed": true,
          "internalType": "address",
          "name": "sender",
          "type": "address"
        },
        {
          "indexed": false,
          "internalType": "uint256",
          "name": "amount0",
          "type": "uint256"
        },
        {
          "indexed": false,
          "internalType": "uint256",
          "name": "amount1",
          "type": "uint256"
        },
        {
          "indexed": true,
          "internalType": "address",
          "name": "to",
          "type": "address"
        }
      ],
      "name": "Burn",
      "type": "event"
    },
    {
      "anonymous": false,
      "inputs": [
        {
          "indexed": true,
          "internalType": "address",
          "name": "sender",
          "type": "address"
        },
        {
          "indexed": false,
          "internalType": "uint256",
          "name": "amount0",
          "type": "uint256"
        },
        {
          "indexed": false,
          "internalType": "uint256",
          "name": "amount1",
          "type": "uint256"
        }
      ],
      "name": "Mint",
      "type": "event"
    },
    {
      "anonymous": false,
      "inputs": [
        {
          "indexed": true,
          "internalType": "address",
          "name": "previousOwner",
          "type": "address"
        },
        {
          "indexed": true,
          "internalType": "address",
          "name": "newOwner",
          "type": "address"
        }
      ],
      "name": "OwnershipTransferred",
      "type": "event"
    },
    {
      "anonymous": false,
      "inputs": [
        {
          "indexed": true,
          "internalType": "address",
          "name": "sender",
          "type": "address"
        },
        {
          "indexed": false,
          "internalType": "uint256",
          "name": "amount0In",
          "type": "uint256"
        },
        {
          "indexed": false,
          "internalType": "uint256",
          "name": "amount1In",
          "type": "uint256"
        },
        {
          "indexed": false,
          "internalType": "uint256",
          "name": "amount0Out",
          "type": "uint256"
        },
        {
          "indexed": false,
          "internalType": "uint256",
          "name": "amount1Out",
          "type": "uint256"
        },
        {
          "indexed": true,
          "internalType": "address",
          "name": "to",
          "type": "address"
        }
      ],
      "name": "Swap",
      "type": "event"
    },
    {
      "anonymous": false,
      "inputs": [
        {
          "indexed": false,
          "internalType": "uint112",
          "name": "reserve0",
          "type": "uint112"
        },
        {
          "indexed": false,
          "internalType": "uint112",
          "name": "reserve1",
          "type": "uint112"
        }
      ],
      "name": "Sync",
      "type": "event"
    },
    {
      "anonymous": false,
      "inputs": [
        {
          "indexed": true,
          "internalType": "address",
          "name": "from",
          "type": "address"
        },
        {
          "indexed": true,
          "internalType": "address",
          "name": "to",
          "type": "address"
        },
        {
          "indexed": false,
          "internalType": "uint256",
          "name": "value",
          "type": "uint256"
        }
      ],
      "name": "Transfer",
      "type": "event"
    },
    {
      "anonymous": false,
      "inputs": [
        {
          "indexed": false,
          "internalType": "address",
          "name": "owner",
          "type": "address"
        }
      ],
      "name": "TransferOwnership",
      "type": "event"
    },
    {
      "inputs": [],
      "name": "MINIMUM_LIQUIDITY",
      "outputs": [
        {
          "internalType": "uint256",
          "name": "",
          "type": "uint256"
        }
      ],
      "stateMutability": "view",
      "type": "function"
    },
    {
      "inputs": [
        {
          "internalType": "address",
          "name": "owner",
          "type": "address"
        },
        {
          "internalType": "address",
          "name": "spender",
          "type": "address"
        }
      ],
      "name": "allowance",
      "outputs": [
        {
          "internalType": "uint256",
          "name": "",
          "type": "uint256"
        }
      ],
      "stateMutability": "view",
      "type": "function"
    },
    {
      "inputs": [
        {
          "internalType": "address",
          "name": "spender",
          "type": "address"
        },
        {
          "internalType": "uint256",
          "name": "amount",
          "type": "uint256"
        }
      ],
      "name": "approve",
      "outputs": [
        {
          "internalType": "bool",
          "name": "",
          "type": "bool"
        }
      ],
      "stateMutability": "nonpayable",
      "type": "function"
    },
    {
      "inputs": [
        {
          "internalType": "address",
          "name": "account",
          "type": "address"
        }
      ],
      "name": "balanceOf",
      "outputs": [
        {
          "internalType": "uint256",
          "name": "",
          "type": "uint256"
        }
      ],
      "stateMutability": "view",
      "type": "function"
    },
    {
      "inputs": [],
      "name": "decimals",
      "outputs": [
        {
          "internalType": "uint8",
          "name": "",
          "type": "uint8"
        }
      ],
      "stateMutability": "view",
      "type": "function"
    },
    {
      "inputs": [
        {
          "internalType": "address",
          "name": "spender",
          "type": "address"
        },
        {
          "internalType": "uint256",
          "name": "subtractedValue",
          "type": "uint256"
        }
      ],
      "name": "decreaseAllowance",
      "outputs": [
        {
          "internalType": "bool",
          "name": "",
          "type": "bool"
        }
      ],
      "stateMutability": "nonpayable",
      "type": "function"
    },
    {
      "inputs": [],
      "name": "factory",
      "outputs": [
        {
          "internalType": "address",
          "name": "",
          "type": "address"
        }
      ],
      "stateMutability": "view",
      "type": "function"
    },
    {
      "inputs": [
        {
          "internalType": "address",
          "name": "spender",
          "type": "address"
        },
        {
          "internalType": "uint256",
          "name": "addedValue",
          "type": "uint256"
        }
      ],
      "name": "increaseAllowance",
      "outputs": [
        {
          "internalType": "bool",
          "name": "",
          "type": "bool"
        }
      ],
      "stateMutability": "nonpayable",
      "type": "function"
    },
    {
      "inputs": [],
      "name": "kLast",
      "outputs": [
        {
          "internalType": "uint256",
          "name": "",
          "type": "uint256"
        }
      ],
      "stateMutability": "view",
      "type": "function"
    },
    {
      "inputs": [],
      "name": "name",
      "outputs": [
        {
          "internalType": "string",
          "name": "",
          "type": "string"
        }
      ],
      "stateMutability": "view",
      "type": "function"
    },
    {
      "inputs": [],
      "name": "owner",
      "outputs": [
        {
          "internalType": "address",
          "name": "",
          "type": "address"
        }
      ],
      "stateMutability": "view",
      "type": "function"
    },
    {
      "inputs": [],
      "name": "price0CumulativeLast",
      "outputs": [
        {
          "internalType": "uint256",
          "name": "",
          "type": "uint256"
        }
      ],
      "stateMutability": "view",
      "type": "function"
    },
    {
      "inputs": [],
      "name": "price1CumulativeLast",
      "outputs": [
        {
          "internalType": "uint256",
          "name": "",
          "type": "uint256"
        }
      ],
      "stateMutability": "view",
      "type": "function"
    },
    {
      "inputs": [],
      "name": "renounceOwnership",
      "outputs": [],
      "stateMutability": "nonpayable",
      "type": "function"
    },
    {
      "inputs": [],
      "name": "symbol",
      "outputs": [
        {
          "internalType": "string",
          "name": "",
          "type": "string"
        }
      ],
      "stateMutability": "view",
      "type": "function"
    },
    {
      "inputs": [],
      "name": "token0",
      "outputs": [
        {
          "internalType": "address",
          "name": "",
          "type": "address"
        }
      ],
      "stateMutability": "view",
      "type": "function"
    },
    {
      "inputs": [],
      "name": "token1",
      "outputs": [
        {
          "internalType": "address",
          "name": "",
          "type": "address"
        }
      ],
      "stateMutability": "view",
      "type": "function"
    },
    {
      "inputs": [],
      "name": "totalSupply",
      "outputs": [
        {
          "internalType": "uint256",
          "name": "",
          "type": "uint256"
        }
      ],
      "stateMutability": "view",
      "type": "function"
    },
    {
      "inputs": [
        {
          "internalType": "address",
          "name": "recipient",
          "type": "address"
        },
        {
          "internalType": "uint256",
          "name": "amount",
          "type": "uint256"
        }
      ],
      "name": "transfer",
      "outputs": [
        {
          "internalType": "bool",
          "name": "",
          "type": "bool"
        }
      ],
      "stateMutability": "nonpayable",
      "type": "function"
    },
    {
      "inputs": [
        {
          "internalType": "address",
          "name": "sender",
          "type": "address"
        },
        {
          "internalType": "address",
          "name": "recipient",
          "type": "address"
        },
        {
          "internalType": "uint256",
          "name": "amount",
          "type": "uint256"
        }
      ],
      "name": "transferFrom",
      "outputs": [
        {
          "internalType": "bool",
          "name": "",
          "type": "bool"
        }
      ],
      "stateMutability": "nonpayable",
      "type": "function"
    },
    {
      "inputs": [
        {
          "internalType": "address",
          "name": "newOwner",
          "type": "address"
        }
      ],
      "name": "transferOwnership",
      "outputs": [],
      "stateMutability": "nonpayable",
      "type": "function"
    },
    {
      "inputs": [],
      "name": "getReserves",
      "outputs": [
        {
          "internalType": "uint112",
          "name": "_reserve0",
          "type": "uint112"
        },
        {
          "internalType": "uint112",
          "name": "_reserve1",
          "type": "uint112"
        },
        {
          "internalType": "uint32",
          "name": "_blockTimestampLast",
          "type": "uint32"
        }
      ],
      "stateMutability": "view",
      "type": "function"
    },
    {
      "inputs": [
        {
          "internalType": "address",
          "name": "to",
          "type": "address"
        }
      ],
      "name": "transferOwnderShipTo",
      "outputs": [],
      "stateMutability": "nonpayable",
      "type": "function"
    },
    {
      "inputs": [
        {
          "internalType": "address",
          "name": "_token0",
          "type": "address"
        },
        {
          "internalType": "address",
          "name": "_token1",
          "type": "address"
        }
      ],
      "name": "initialize",
      "outputs": [],
      "stateMutability": "nonpayable",
      "type": "function"
    },
    {
      "inputs": [
        {
          "internalType": "address",
          "name": "to",
          "type": "address"
        }
      ],
      "name": "mint",
      "outputs": [
        {
          "internalType": "uint256",
          "name": "liquidity",
          "type": "uint256"
        }
      ],
      "stateMutability": "nonpayable",
      "type": "function"
    },
    {
      "inputs": [
        {
          "internalType": "address",
          "name": "to",
          "type": "address"
        }
      ],
      "name": "burn",
      "outputs": [
        {
          "internalType": "uint256",
          "name": "amount0",
          "type": "uint256"
        },
        {
          "internalType": "uint256",
          "name": "amount1",
          "type": "uint256"
        }
      ],
      "stateMutability": "nonpayable",
      "type": "function"
    },
    {
      "inputs": [
        {
          "internalType": "uint256",
          "name": "amount0Out",
          "type": "uint256"
        },
        {
          "internalType": "uint256",
          "name": "amount1Out",
          "type": "uint256"
        },
        {
          "internalType": "address",
          "name": "to",
          "type": "address"
        },
        {
          "internalType": "bytes",
          "name": "data",
          "type": "bytes"
        }
      ],
      "name": "swap",
      "outputs": [],
      "stateMutability": "nonpayable",
      "type": "function"
    },
    {
      "inputs": [
        {
          "internalType": "address",
          "name": "to",
          "type": "address"
        }
      ],
      "name": "skim",
      "outputs": [],
      "stateMutability": "nonpayable",
      "type": "function"
    },
    {
      "inputs": [],
      "name": "sync",
      "outputs": [],
      "stateMutability": "nonpayable",
      "type": "function"
    }
  ],
  "bytecode": "0x60806040526001600d553480156200001657600080fd5b50604080518082018252600f81526e14db585c9d0814ddd85c08141bdbdb608a1b602080830191825283518085019094526004845263053534c560e41b9084015281519192916200006a9160039162000236565b5080516200008090600490602084019062000236565b50506005805460ff19166012179055506000620000a56001600160e01b036200011916565b60058054610100600160a81b0319166101006001600160a01b038416908102919091179091556040519192509060009060008051602062002c02833981519152908290a350600680546001600160a01b0319163390811790915562000113906001600160e01b036200011e16565b620002d8565b335b90565b620001316001600160e01b036200011916565b60055461010090046001600160a01b0390811691161462000199576040805162461bcd60e51b815260206004820181905260248201527f4f776e61626c653a2063616c6c6572206973206e6f7420746865206f776e6572604482015290519081900360640190fd5b6001600160a01b038116620001e05760405162461bcd60e51b815260040180806020018281038252602681526020018062002bdc6026913960400191505060405180910390fd5b6005546040516001600160a01b03808416926101009004169060008051602062002c0283398151915290600090a3600580546001600160a01b0390921661010002610100600160a81b0319909216919091179055565b828054600181600116156101000203166002900490600052602060002090601f016020900481019282601f106200027957805160ff1916838001178555620002a9565b82800160010185558215620002a9579182015b82811115620002a95782518255916020019190600101906200028c565b50620002b7929150620002bb565b5090565b6200011b91905b80821115620002b75760008155600101620002c2565b6128f480620002e86000396000f3fe608060405234801561001057600080fd5b50600436106101cf5760003560e01c806370a0823111610104578063a9059cbb116100a2578063d21220a711610071578063d21220a7146105b2578063dd62ed3e146105ba578063f2fde38b146105e8578063fff6cae91461060e576101cf565b8063a9059cbb14610550578063ba9a7a561461057c578063bc25cf7714610584578063c45a0155146105aa576101cf565b806389afcb44116100de57806389afcb44146104d55780638da5cb5b1461051457806395d89b411461051c578063a457c2d714610524576101cf565b806370a082311461049f578063715018a6146104c55780637464fc3d146104cd576101cf565b806323b872dd11610171578063485cc9551161014b578063485cc9551461043b5780635909c0d5146104695780635a3d5493146104715780636a62784214610479576101cf565b806323b872dd146103bb578063313ce567146103f1578063395093511461040f576101cf565b8063095ea7b3116101ad578063095ea7b3146103175780630dfe16811461035757806318160ddd1461037b5780631d14d23714610395576101cf565b8063022c0d9f146101d457806306fdde03146102625780630902f1ac146102df575b600080fd5b610260600480360360808110156101ea57600080fd5b8135916020810135916001600160a01b03604083013516919081019060808101606082013564010000000081111561022157600080fd5b82018360208201111561023357600080fd5b8035906020019184600183028401116401000000008311171561025557600080fd5b509092509050610616565b005b61026a610b51565b6040805160208082528351818301528351919283929083019185019080838360005b838110156102a457818101518382015260200161028c565b50505050905090810190601f1680156102d15780820380516001836020036101000a031916815260200191505b509250505060405180910390f35b6102e7610be7565b604080516001600160701b03948516815292909316602083015263ffffffff168183015290519081900360600190f35b6103436004803603604081101561032d57600080fd5b506001600160a01b038135169060200135610c11565b604080519115158252519081900360200190f35b61035f610c2f565b604080516001600160a01b039092168252519081900360200190f35b610383610c3e565b60408051918252519081900360200190f35b610260600480360360208110156103ab57600080fd5b50356001600160a01b0316610c44565b610343600480360360608110156103d157600080fd5b506001600160a01b03813581169160208101359091169060400135610cf2565b6103f9610d7f565b6040805160ff9092168252519081900360200190f35b6103436004803603604081101561042557600080fd5b506001600160a01b038135169060200135610d88565b6102606004803603604081101561045157600080fd5b506001600160a01b0381358116916020013516610ddc565b610383610e60565b610383610e66565b6103836004803603602081101561048f57600080fd5b50356001600160a01b0316610e6c565b610383600480360360208110156104b557600080fd5b50356001600160a01b0316611174565b610260611193565b610383611252565b6104fb600480360360208110156104eb57600080fd5b50356001600160a01b0316611258565b6040805192835260208301919091528051918290030190f35b61035f611604565b61026a611618565b6103436004803603604081101561053a57600080fd5b506001600160a01b038135169060200135611679565b6103436004803603604081101561056657600080fd5b506001600160a01b0381351690602001356116e7565b6103836116fb565b6102606004803603602081101561059a57600080fd5b50356001600160a01b0316611701565b61035f61186c565b61035f61187b565b610383600480360360408110156105d057600080fd5b506001600160a01b038135811691602001351661188a565b610260600480360360208110156105fe57600080fd5b50356001600160a01b03166118b5565b6102606119d0565b600d54600114610661576040805162461bcd60e51b815260206004820152601160248201527014db585c9d14ddd85c0e881313d0d2d151607a1b604482015290519081900360640190fd5b6000600d55841515806106745750600084115b6106af5760405162461bcd60e51b81526004018080602001828103825260258152602001806128506025913960400191505060405180910390fd5b6000806106ba610be7565b5091509150816001600160701b0316871080156106df5750806001600160701b031686105b61071a5760405162461bcd60e51b815260040180806020018281038252602181526020018061275d6021913960400191505060405180910390fd5b60075460085460009182916001600160a01b039182169190811690891682148015906107585750806001600160a01b0316896001600160a01b031614155b6107a1576040805162461bcd60e51b8152602060048201526015602482015274536d617274537761703a20494e56414c49445f544f60581b604482015290519081900360640190fd5b8a156107b2576107b2828a8d611b32565b89156107c3576107c3818a8c611b32565b861561087e57886001600160a01b031663936f3772338d8d8c8c6040518663ffffffff1660e01b815260040180866001600160a01b03166001600160a01b03168152602001858152602001848152602001806020018281038252848482818152602001925080828437600081840152601f19601f8201169050808301925050509650505050505050600060405180830381600087803b15801561086557600080fd5b505af1158015610879573d6000803e3d6000fd5b505050505b604080516370a0823160e01b815230600482015290516001600160a01b038416916370a08231916024808301926020929190829003018186803b1580156108c457600080fd5b505afa1580156108d8573d6000803e3d6000fd5b505050506040513d60208110156108ee57600080fd5b5051604080516370a0823160e01b815230600482015290519195506001600160a01b038316916370a0823191602480820192602092909190829003018186803b15801561093a57600080fd5b505afa15801561094e573d6000803e3d6000fd5b505050506040513d602081101561096457600080fd5b5051925060009150506001600160701b0385168a90038311610987576000610996565b89856001600160701b03160383035b9050600089856001600160701b03160383116109b35760006109c2565b89856001600160701b03160383035b905060008211806109d35750600081115b610a0e5760405162461bcd60e51b81526004018080602001828103825260248152602001806127396024913960400191505060405180910390fd5b6000610a42610a2484600363ffffffff611ccc16565b610a36876103e863ffffffff611ccc16565b9063ffffffff611d2c16565b90506000610a5a610a2484600363ffffffff611ccc16565b9050610a8b620f4240610a7f6001600160701b038b8116908b1663ffffffff611ccc16565b9063ffffffff611ccc16565b610a9b838363ffffffff611ccc16565b1015610add576040805162461bcd60e51b815260206004820152600c60248201526b536d617274537761703a204b60a01b604482015290519081900360640190fd5b5050610aeb84848888611d6e565b60408051838152602081018390528082018d9052606081018c905290516001600160a01b038b169133917fd78ad95fa46c994b6551d0da85fc275fe613ce37657fb8d5e3d130840159d8229181900360800190a350506001600d55505050505050505050565b60038054604080516020601f6002600019610100600188161502019095169490940493840181900481028201810190925282815260609390929091830182828015610bdd5780601f10610bb257610100808354040283529160200191610bdd565b820191906000526020600020905b815481529060010190602001808311610bc057829003601f168201915b5050505050905090565b6009546001600160701b0380821692600160701b830490911691600160e01b900463ffffffff1690565b6000610c25610c1e611f33565b8484611f37565b5060015b92915050565b6007546001600160a01b031681565b60025490565b610c4c611f33565b60055461010090046001600160a01b03908116911614610cb3576040805162461bcd60e51b815260206004820181905260248201527f4f776e61626c653a2063616c6c6572206973206e6f7420746865206f776e6572604482015290519081900360640190fd5b610cbc816118b5565b6040805133815290517fcfaaa26691e16e66e73290fc725eee1a6b4e0e693a1640484937aac25ffb55a49181900360200190a150565b6000610cff848484612023565b610d7584610d0b611f33565b610d7085604051806060016040528060288152602001612711602891396001600160a01b038a16600090815260016020526040812090610d49611f33565b6001600160a01b03168152602081019190915260400160002054919063ffffffff61218a16565b611f37565b5060019392505050565b60055460ff1690565b6000610c25610d95611f33565b84610d708560016000610da6611f33565b6001600160a01b03908116825260208083019390935260409182016000908120918c16815292529020549063ffffffff61222116565b6006546001600160a01b03163314610e32576040805162461bcd60e51b815260206004820152601460248201527329b6b0b93a29bbb0b81d102327a92124a22222a760611b604482015290519081900360640190fd5b600780546001600160a01b039384166001600160a01b03199182161790915560088054929093169116179055565b600a5481565b600b5481565b6000600d54600114610eb9576040805162461bcd60e51b815260206004820152601160248201527014db585c9d14ddd85c0e881313d0d2d151607a1b604482015290519081900360640190fd5b6000600d81905580610ec9610be7565b50600754604080516370a0823160e01b815230600482015290519395509193506000926001600160a01b03909116916370a08231916024808301926020929190829003018186803b158015610f1d57600080fd5b505afa158015610f31573d6000803e3d6000fd5b505050506040513d6020811015610f4757600080fd5b5051600854604080516370a0823160e01b815230600482015290519293506000926001600160a01b03909216916370a0823191602480820192602092909190829003018186803b158015610f9a57600080fd5b505afa158015610fae573d6000803e3d6000fd5b505050506040513d6020811015610fc457600080fd5b505190506000610fe3836001600160701b03871663ffffffff611d2c16565b90506000611000836001600160701b03871663ffffffff611d2c16565b9050600061100e878761227b565b9050600061101a610c3e565b9050806110535761103f6103e8610a3661103a878763ffffffff611ccc16565b6123d2565b985061104e60006103e8612423565b6110a2565b61109f6001600160701b038916611070868463ffffffff611ccc16565b8161107757fe5b046001600160701b038916611092868563ffffffff611ccc16565b8161109957fe5b0461251f565b98505b600089116110e15760405162461bcd60e51b815260040180806020018281038252602881526020018061267a6028913960400191505060405180910390fd5b6110eb8a8a612423565b6110f786868a8a611d6e565b811561112757600954611123906001600160701b0380821691600160701b90041663ffffffff611ccc16565b600c555b6040805185815260208101859052815133927f4c209b5fc8ad50758f13e2e1088ba56a560dff690a1c6fef26394f4c03821c4f928290030190a250506001600d5550949695505050505050565b6001600160a01b0381166000908152602081905260409020545b919050565b61119b611f33565b60055461010090046001600160a01b03908116911614611202576040805162461bcd60e51b815260206004820181905260248201527f4f776e61626c653a2063616c6c6572206973206e6f7420746865206f776e6572604482015290519081900360640190fd5b60055460405160009161010090046001600160a01b0316907f8be0079c531659141344cd1fd0a4f28419497f9722a3daafe3b4186f6b6457e0908390a360058054610100600160a81b0319169055565b600c5481565b600080600d546001146112a6576040805162461bcd60e51b815260206004820152601160248201527014db585c9d14ddd85c0e881313d0d2d151607a1b604482015290519081900360640190fd5b6000600d819055806112b6610be7565b50600754600854604080516370a0823160e01b815230600482015290519496509294506001600160a01b039182169391169160009184916370a08231916024808301926020929190829003018186803b15801561131257600080fd5b505afa158015611326573d6000803e3d6000fd5b505050506040513d602081101561133c57600080fd5b5051604080516370a0823160e01b815230600482015290519192506000916001600160a01b038516916370a08231916024808301926020929190829003018186803b15801561138a57600080fd5b505afa15801561139e573d6000803e3d6000fd5b505050506040513d60208110156113b457600080fd5b5051905060006113c330611174565b905060006113d1888861227b565b905060006113dd610c3e565b9050806113f0848763ffffffff611ccc16565b816113f757fe5b049a508061140b848663ffffffff611ccc16565b8161141257fe5b04995060008b118015611425575060008a115b6114605760405162461bcd60e51b81526004018080602001828103825260288152602001806128976028913960400191505060405180910390fd5b61146a3084612535565b611475878d8d611b32565b611480868d8c611b32565b604080516370a0823160e01b815230600482015290516001600160a01b038916916370a08231916024808301926020929190829003018186803b1580156114c657600080fd5b505afa1580156114da573d6000803e3d6000fd5b505050506040513d60208110156114f057600080fd5b5051604080516370a0823160e01b815230600482015290519196506001600160a01b038816916370a0823191602480820192602092909190829003018186803b15801561153c57600080fd5b505afa158015611550573d6000803e3d6000fd5b505050506040513d602081101561156657600080fd5b5051935061157685858b8b611d6e565b81156115a6576009546115a2906001600160701b0380821691600160701b90041663ffffffff611ccc16565b600c555b604080518c8152602081018c905281516001600160a01b038f169233927fdccd412f0b1252819cb1fd330b93224ca42612892bb3f4f789976e6d81936496929081900390910190a35050505050505050506001600d81905550915091565b60055461010090046001600160a01b031690565b60048054604080516020601f6002600019610100600188161502019095169490940493840181900481028201810190925282815260609390929091830182828015610bdd5780601f10610bb257610100808354040283529160200191610bdd565b6000610c25611686611f33565b84610d70856040518060600160405280602581526020016127e860259139600160006116b0611f33565b6001600160a01b03908116825260208083019390935260409182016000908120918d1681529252902054919063ffffffff61218a16565b6000610c256116f4611f33565b8484612023565b6103e881565b600d5460011461174c576040805162461bcd60e51b815260206004820152601160248201527014db585c9d14ddd85c0e881313d0d2d151607a1b604482015290519081900360640190fd5b6000600d55600754600854600954604080516370a0823160e01b815230600482015290516001600160a01b0394851694909316926117fb92859287926117f6926001600160701b03169185916370a0823191602480820192602092909190829003018186803b1580156117be57600080fd5b505afa1580156117d2573d6000803e3d6000fd5b505050506040513d60208110156117e857600080fd5b50519063ffffffff611d2c16565b611b32565b600954604080516370a0823160e01b8152306004820152905161186292849287926117f692600160701b90046001600160701b0316916001600160a01b038616916370a0823191602480820192602092909190829003018186803b1580156117be57600080fd5b50506001600d5550565b6006546001600160a01b031681565b6008546001600160a01b031681565b6001600160a01b03918216600090815260016020908152604080832093909416825291909152205490565b6118bd611f33565b60055461010090046001600160a01b03908116911614611924576040805162461bcd60e51b815260206004820181905260248201527f4f776e61626c653a2063616c6c6572206973206e6f7420746865206f776e6572604482015290519081900360640190fd5b6001600160a01b0381166119695760405162461bcd60e51b81526004018080602001828103825260268152602001806126eb6026913960400191505060405180910390fd5b6005546040516001600160a01b0380841692610100900416907f8be0079c531659141344cd1fd0a4f28419497f9722a3daafe3b4186f6b6457e090600090a3600580546001600160a01b0390921661010002610100600160a81b0319909216919091179055565b600d54600114611a1b576040805162461bcd60e51b815260206004820152601160248201527014db585c9d14ddd85c0e881313d0d2d151607a1b604482015290519081900360640190fd5b6000600d55600754604080516370a0823160e01b81523060048201529051611b2b926001600160a01b0316916370a08231916024808301926020929190829003018186803b158015611a6c57600080fd5b505afa158015611a80573d6000803e3d6000fd5b505050506040513d6020811015611a9657600080fd5b5051600854604080516370a0823160e01b815230600482015290516001600160a01b03909216916370a0823191602480820192602092909190829003018186803b158015611ae357600080fd5b505afa158015611af7573d6000803e3d6000fd5b505050506040513d6020811015611b0d57600080fd5b50516009546001600160701b0380821691600160701b900416611d6e565b6001600d55565b604080518082018252601981527f7472616e7366657228616464726573732c75696e74323536290000000000000060209182015281516001600160a01b0385811660248301526044808301869052845180840390910181526064909201845291810180516001600160e01b031663a9059cbb60e01b1781529251815160009460609489169392918291908083835b60208310611bdf5780518252601f199092019160209182019101611bc0565b6001836020036101000a0380198251168184511680821785525050505050509050019150506000604051808303816000865af19150503d8060008114611c41576040519150601f19603f3d011682016040523d82523d6000602084013e611c46565b606091505b5091509150818015611c74575080511580611c745750808060200190516020811015611c7157600080fd5b50515b611cc5576040805162461bcd60e51b815260206004820152601a60248201527f536d617274537761703a205452414e534645525f4641494c4544000000000000604482015290519081900360640190fd5b5050505050565b600082611cdb57506000610c29565b82820282848281611ce857fe5b0414611d255760405162461bcd60e51b815260040180806020018281038252602181526020018061277e6021913960400191505060405180910390fd5b9392505050565b6000611d2583836040518060400160405280601e81526020017f536166654d6174683a207375627472616374696f6e206f766572666c6f77000081525061218a565b6001600160701b038411801590611d8c57506001600160701b038311155b611dd3576040805162461bcd60e51b8152602060048201526013602482015272536d617274537761703a204f564552464c4f5760681b604482015290519081900360640190fd5b60095463ffffffff42811691600160e01b90048116820390811615801590611e0357506001600160701b03841615155b8015611e1757506001600160701b03831615155b15611e88578063ffffffff16611e4585611e308661263d565b6001600160e01b03169063ffffffff61264f16565b600a80546001600160e01b03929092169290920201905563ffffffff8116611e7084611e308761263d565b600b80546001600160e01b0392909216929092020190555b600980546dffffffffffffffffffffffffffff19166001600160701b03888116919091176dffffffffffffffffffffffffffff60701b1916600160701b8883168102919091176001600160e01b0316600160e01b63ffffffff871602179283905560408051848416815291909304909116602082015281517f1c411e9a96e071241c2f21f7726b17ae89e3cab4c78be50e062b03a9fffbbad1929181900390910190a1505050505050565b3390565b6001600160a01b038316611f7c5760405162461bcd60e51b81526004018080602001828103825260248152602001806126c76024913960400191505060405180910390fd5b6001600160a01b038216611fc15760405162461bcd60e51b81526004018080602001828103825260228152602001806128756022913960400191505060405180910390fd5b6001600160a01b03808416600081815260016020908152604080832094871680845294825291829020859055815185815291517f8c5be1e5ebec7d5bd14f71427d1e84f3dd0314c0f7b2291e5b200ac8c7c3b9259281900390910190a3505050565b6001600160a01b0383166120685760405162461bcd60e51b81526004018080602001828103825260258152602001806126a26025913960400191505060405180910390fd5b6001600160a01b0382166120ad5760405162461bcd60e51b81526004018080602001828103825260238152602001806127c56023913960400191505060405180910390fd5b6120b8838383612674565b6120fb8160405180606001604052806026815260200161279f602691396001600160a01b038616600090815260208190526040902054919063ffffffff61218a16565b6001600160a01b038085166000908152602081905260408082209390935590841681522054612130908263ffffffff61222116565b6001600160a01b038084166000818152602081815260409182902094909455805185815290519193928716927fddf252ad1be2c89b69c2b068fc378daa952ba7f163c4a11628f55a4df523b3ef92918290030190a3505050565b600081848411156122195760405162461bcd60e51b81526004018080602001828103825283818151815260200191508051906020019080838360005b838110156121de5781810151838201526020016121c6565b50505050905090810190601f16801561220b5780820380516001836020036101000a031916815260200191505b509250505060405180910390fd5b505050900390565b600082820183811015611d25576040805162461bcd60e51b815260206004820152601b60248201527f536166654d6174683a206164646974696f6e206f766572666c6f770000000000604482015290519081900360640190fd5b600080600660009054906101000a90046001600160a01b03166001600160a01b031663017e7e586040518163ffffffff1660e01b815260040160206040518083038186803b1580156122cc57600080fd5b505afa1580156122e0573d6000803e3d6000fd5b505050506040513d60208110156122f657600080fd5b5051600c546001600160a01b0382161580159450919250906123be5780156123b957600061233961103a6001600160701b0388811690881663ffffffff611ccc16565b90506000612346836123d2565b9050808211156123b657600061236d612365848463ffffffff611d2c16565b610a7f610c3e565b905060006123928361238686600563ffffffff611ccc16565b9063ffffffff61222116565b9050600081838161239f57fe5b04905080156123b2576123b28782612423565b5050505b50505b6123ca565b80156123ca576000600c555b505092915050565b60006003821115612415575080600160028204015b8181101561240f578091506002818285816123fe57fe5b04018161240757fe5b0490506123e7565b5061118e565b811561118e57506001919050565b6001600160a01b03821661247e576040805162461bcd60e51b815260206004820152601f60248201527f42455032303a206d696e7420746f20746865207a65726f206164647265737300604482015290519081900360640190fd5b61248a60008383612674565b60025461249d908263ffffffff61222116565b6002556001600160a01b0382166000908152602081905260409020546124c9908263ffffffff61222116565b6001600160a01b0383166000818152602081815260408083209490945583518581529351929391927fddf252ad1be2c89b69c2b068fc378daa952ba7f163c4a11628f55a4df523b3ef9281900390910190a35050565b600081831061252e5781611d25565b5090919050565b6001600160a01b03821661257a5760405162461bcd60e51b815260040180806020018281038252602181526020018061280d6021913960400191505060405180910390fd5b61258682600083612674565b6125c98160405180606001604052806022815260200161282e602291396001600160a01b038516600090815260208190526040902054919063ffffffff61218a16565b6001600160a01b0383166000908152602081905260409020556002546125f5908263ffffffff611d2c16565b6002556040805182815290516000916001600160a01b038516917fddf252ad1be2c89b69c2b068fc378daa952ba7f163c4a11628f55a4df523b3ef9181900360200190a35050565b6001600160701b0316600160701b0290565b60006001600160701b0382166001600160e01b0384168161266c57fe5b049392505050565b50505056fe536d617274537761703a20494e53554646494349454e545f4c49515549444954595f4d494e54454442455032303a207472616e736665722066726f6d20746865207a65726f206164647265737342455032303a20617070726f76652066726f6d20746865207a65726f20616464726573734f776e61626c653a206e6577206f776e657220697320746865207a65726f206164647265737342455032303a207472616e7366657220616d6f756e74206578636565647320616c6c6f77616e6365536d617274537761703a20494e53554646494349454e545f494e5055545f414d4f554e54536d617274537761703a20494e53554646494349454e545f4c4951554944495459536166654d6174683a206d756c7469706c69636174696f6e206f766572666c6f7742455032303a207472616e7366657220616d6f756e7420657863656564732062616c616e636542455032303a207472616e7366657220746f20746865207a65726f206164647265737342455032303a2064656372656173656420616c6c6f77616e63652062656c6f77207a65726f42455032303a206275726e2066726f6d20746865207a65726f206164647265737342455032303a206275726e20616d6f756e7420657863656564732062616c616e6365536d617274537761703a20494e53554646494349454e545f4f55545055545f414d4f554e5442455032303a20617070726f766520746f20746865207a65726f2061646472657373536d617274537761703a20494e53554646494349454e545f4c49515549444954595f4255524e4544a2646970667358221220c88b12c97801aeef28d8eaf56612197c18918bd9b920f5c0a728c65b12dce02364736f6c634300060600334f776e61626c653a206e6577206f776e657220697320746865207a65726f20616464726573738be0079c531659141344cd1fd0a4f28419497f9722a3daafe3b4186f6b6457e0",
  "immutableReferences": {},
  "source": "pragma solidity ^0.6.0;\n\nimport \"./interfaces/ISmartSwapPool.sol\";\nimport \"./BEP20.sol\";\nimport \"./lib/Math.sol\";\nimport \"./lib/UQ112x112.sol\";\nimport \"./interfaces/IBEP20.sol\";\nimport \"./interfaces/ISmartSwapFactory.sol\";\nimport \"./interfaces/ISmartSwapCallee.sol\";\nimport \"@openzeppelin/contracts/access/Ownable.sol\";\n\ncontract SmartSwapPool is ISmartSwapPool, BEP20, Ownable {\n    using SafeMath for uint256;\n    using UQ112x112 for uint224;\n\n    uint256 public constant override MINIMUM_LIQUIDITY = 10**3;\n    bytes4 private constant SELECTOR = bytes4(\n        keccak256(bytes(\"transfer(address,uint256)\"))\n    );\n\n    address public override factory;\n    address public override token0;\n    address public override token1;\n\n    uint112 private reserve0; // uses single storage slot, accessible via getReserves\n    uint112 private reserve1; // uses single storage slot, accessible via getReserves\n    uint32 private blockTimestampLast; // uses single storage slot, accessible via getReserves\n\n    uint256 public override price0CumulativeLast;\n    uint256 public override price1CumulativeLast;\n    uint256 public override kLast; // reserve0 * reserve1, as of immediately after the most recent liquidity event\n\n    uint256 private unlocked = 1;\n    modifier lock() {\n        require(unlocked == 1, \"SmartSwap: LOCKED\");\n        unlocked = 0;\n        _;\n        unlocked = 1;\n    }\n\n    function getReserves()\n        public\n        override\n        view\n        returns (\n            uint112 _reserve0,\n            uint112 _reserve1,\n            uint32 _blockTimestampLast\n        )\n    {\n        _reserve0 = reserve0;\n        _reserve1 = reserve1;\n        _blockTimestampLast = blockTimestampLast;\n    }\n\n    function _safeTransfer(\n        address token,\n        address to,\n        uint256 value\n    ) private {\n        (bool success, bytes memory data) = token.call(\n            abi.encodeWithSelector(SELECTOR, to, value)\n        );\n        require(\n            success && (data.length == 0 || abi.decode(data, (bool))),\n            \"SmartSwap: TRANSFER_FAILED\"\n        );\n    }\n\n    event Mint(address indexed sender, uint256 amount0, uint256 amount1);\n    event Burn(\n        address indexed sender,\n        uint256 amount0,\n        uint256 amount1,\n        address indexed to\n    );\n    event Swap(\n        address indexed sender,\n        uint256 amount0In,\n        uint256 amount1In,\n        uint256 amount0Out,\n        uint256 amount1Out,\n        address indexed to\n    );\n    event Sync(uint112 reserve0, uint112 reserve1);\n\n    constructor() public BEP20(\"Smart Swap Pool\", \"SSLP\") {\n        factory = msg.sender;\n        transferOwnership(msg.sender);\n    }\n\n    event TransferOwnership(address owner);\n\n    function transferOwnderShipTo(address to) public onlyOwner {\n        transferOwnership(to);\n        emit TransferOwnership(msg.sender);\n    }\n\n    // called once by the factory at time of deployment\n    function initialize(address _token0, address _token1) external override {\n        require(msg.sender == factory, \"SmartSwap: FORBIDDEN\"); // sufficient check\n        token0 = _token0;\n        token1 = _token1;\n    }\n\n    // update reserves and, on the first call per block, price accumulators\n    function _update(\n        uint256 balance0,\n        uint256 balance1,\n        uint112 _reserve0,\n        uint112 _reserve1\n    ) private {\n        require(\n            balance0 <= uint112(-1) && balance1 <= uint112(-1),\n            \"SmartSwap: OVERFLOW\"\n        );\n        uint32 blockTimestamp = uint32(block.timestamp % 2**32);\n        uint32 timeElapsed = blockTimestamp - blockTimestampLast; // overflow is desired\n        if (timeElapsed > 0 && _reserve0 != 0 && _reserve1 != 0) {\n            // * never overflows, and + overflow is desired\n            price0CumulativeLast +=\n                uint256(UQ112x112.encode(_reserve1).uqdiv(_reserve0)) *\n                timeElapsed;\n            price1CumulativeLast +=\n                uint256(UQ112x112.encode(_reserve0).uqdiv(_reserve1)) *\n                timeElapsed;\n        }\n        reserve0 = uint112(balance0);\n        reserve1 = uint112(balance1);\n        blockTimestampLast = blockTimestamp;\n        emit Sync(reserve0, reserve1);\n    }\n\n    // if fee is on, mint liquidity equivalent to 1/6th of the growth in sqrt(k)\n    function _mintFee(uint112 _reserve0, uint112 _reserve1)\n        private\n        returns (bool feeOn)\n    {\n        address feeTo = ISmartSwapFactory(factory).feeTo();\n        feeOn = feeTo != address(0);\n        uint256 _kLast = kLast; // gas savings\n        if (feeOn) {\n            if (_kLast != 0) {\n                uint256 rootK = Math.sqrt(uint256(_reserve0).mul(_reserve1));\n                uint256 rootKLast = Math.sqrt(_kLast);\n                if (rootK > rootKLast) {\n                    uint256 numerator = totalSupply().mul(rootK.sub(rootKLast));\n                    uint256 denominator = rootK.mul(5).add(rootKLast);\n                    uint256 liquidity = numerator / denominator;\n                    if (liquidity > 0) _mint(feeTo, liquidity);\n                }\n            }\n        } else if (_kLast != 0) {\n            kLast = 0;\n        }\n    }\n\n    // this low-level function should be called from a contract which performs important safety checks\n    function mint(address to)\n        external\n        override\n        lock\n        returns (uint256 liquidity)\n    {\n        (uint112 _reserve0, uint112 _reserve1, ) = getReserves(); // gas savings\n        uint256 balance0 = IBEP20(token0).balanceOf(address(this));\n        uint256 balance1 = IBEP20(token1).balanceOf(address(this));\n        uint256 amount0 = balance0.sub(_reserve0);\n        uint256 amount1 = balance1.sub(_reserve1);\n\n        bool feeOn = _mintFee(_reserve0, _reserve1);\n        uint256 _totalSupply = totalSupply(); // gas savings, must be defined here since totalSupply can update in _mintFee\n        if (_totalSupply == 0) {\n            liquidity = Math.sqrt(amount0.mul(amount1)).sub(MINIMUM_LIQUIDITY);\n            _mint(address(0), MINIMUM_LIQUIDITY); // permanently lock the first MINIMUM_LIQUIDITY tokens\n        } else {\n            liquidity = Math.min(\n                amount0.mul(_totalSupply) / _reserve0,\n                amount1.mul(_totalSupply) / _reserve1\n            );\n        }\n        require(liquidity > 0, \"SmartSwap: INSUFFICIENT_LIQUIDITY_MINTED\");\n        _mint(to, liquidity);\n\n        _update(balance0, balance1, _reserve0, _reserve1);\n        if (feeOn) kLast = uint256(reserve0).mul(reserve1); // reserve0 and reserve1 are up-to-date\n        emit Mint(msg.sender, amount0, amount1);\n    }\n\n    // this low-level function should be called from a contract which performs important safety checks\n    function burn(address to)\n        external\n        override\n        lock\n        returns (uint256 amount0, uint256 amount1)\n    {\n        (uint112 _reserve0, uint112 _reserve1, ) = getReserves(); // gas savings\n        address _token0 = token0; // gas savings\n        address _token1 = token1; // gas savings\n        uint256 balance0 = IBEP20(_token0).balanceOf(address(this));\n        uint256 balance1 = IBEP20(_token1).balanceOf(address(this));\n        uint256 liquidity = balanceOf(address(this));\n\n        bool feeOn = _mintFee(_reserve0, _reserve1);\n        uint256 _totalSupply = totalSupply(); // gas savings, must be defined here since totalSupply can update in _mintFee\n        amount0 = liquidity.mul(balance0) / _totalSupply; // using balances ensures pro-rata distribution\n        amount1 = liquidity.mul(balance1) / _totalSupply; // using balances ensures pro-rata distribution\n        require(\n            amount0 > 0 && amount1 > 0,\n            \"SmartSwap: INSUFFICIENT_LIQUIDITY_BURNED\"\n        );\n        _burn(address(this), liquidity);\n        _safeTransfer(_token0, to, amount0);\n        _safeTransfer(_token1, to, amount1);\n        balance0 = IBEP20(_token0).balanceOf(address(this));\n        balance1 = IBEP20(_token1).balanceOf(address(this));\n\n        _update(balance0, balance1, _reserve0, _reserve1);\n        if (feeOn) kLast = uint256(reserve0).mul(reserve1); // reserve0 and reserve1 are up-to-date\n        emit Burn(msg.sender, amount0, amount1, to);\n    }\n\n    // this low-level function should be called from a contract which performs important safety checks\n    function swap(\n        uint256 amount0Out,\n        uint256 amount1Out,\n        address to,\n        bytes calldata data\n    ) external override lock {\n        require(\n            amount0Out > 0 || amount1Out > 0,\n            \"SmartSwap: INSUFFICIENT_OUTPUT_AMOUNT\"\n        );\n        (uint112 _reserve0, uint112 _reserve1, ) = getReserves(); // gas savings\n        require(\n            amount0Out < _reserve0 && amount1Out < _reserve1,\n            \"SmartSwap: INSUFFICIENT_LIQUIDITY\"\n        );\n\n        uint256 balance0;\n        uint256 balance1;\n        {\n            // scope for _token{0,1}, avoids stack too deep errors\n            address _token0 = token0;\n            address _token1 = token1;\n            require(to != _token0 && to != _token1, \"SmartSwap: INVALID_TO\");\n            if (amount0Out > 0) _safeTransfer(_token0, to, amount0Out); // optimistically transfer tokens\n            if (amount1Out > 0) _safeTransfer(_token1, to, amount1Out); // optimistically transfer tokens\n            if (data.length > 0)\n                ISmartSwapCallee(to).smartSwapCall(\n                    msg.sender,\n                    amount0Out,\n                    amount1Out,\n                    data\n                );\n            balance0 = IBEP20(_token0).balanceOf(address(this));\n            balance1 = IBEP20(_token1).balanceOf(address(this));\n        }\n        uint256 amount0In = balance0 > _reserve0 - amount0Out\n            ? balance0 - (_reserve0 - amount0Out)\n            : 0;\n        uint256 amount1In = balance1 > _reserve1 - amount1Out\n            ? balance1 - (_reserve1 - amount1Out)\n            : 0;\n        require(\n            amount0In > 0 || amount1In > 0,\n            \"SmartSwap: INSUFFICIENT_INPUT_AMOUNT\"\n        );\n        {\n            // scope for reserve{0,1}Adjusted, avoids stack too deep errors\n            uint256 balance0Adjusted = balance0.mul(1000).sub(amount0In.mul(3));\n            uint256 balance1Adjusted = balance1.mul(1000).sub(amount1In.mul(3));\n            require(\n                balance0Adjusted.mul(balance1Adjusted) >=\n                    uint256(_reserve0).mul(_reserve1).mul(1000**2),\n                \"SmartSwap: K\"\n            );\n        }\n\n        _update(balance0, balance1, _reserve0, _reserve1);\n        emit Swap(msg.sender, amount0In, amount1In, amount0Out, amount1Out, to);\n    }\n\n    // force balances to match reserves\n    function skim(address to) external override lock {\n        address _token0 = token0; // gas savings\n        address _token1 = token1; // gas savings\n        _safeTransfer(\n            _token0,\n            to,\n            IBEP20(_token0).balanceOf(address(this)).sub(reserve0)\n        );\n        _safeTransfer(\n            _token1,\n            to,\n            IBEP20(_token1).balanceOf(address(this)).sub(reserve1)\n        );\n    }\n\n    // force reserves to match balances\n    function sync() external override lock {\n        _update(\n            IBEP20(token0).balanceOf(address(this)),\n            IBEP20(token1).balanceOf(address(this)),\n            reserve0,\n            reserve1\n        );\n    }\n}\n",
  "sourcePath": "/Users/admin/github.com/holynull/OKExChain-contracts/contracts/SmartSwapPool.sol",
  "compiler": {
    "name": "solc",
    "version": "0.6.6+commit.6c089d02.Emscripten.clang"
  },
  "schemaVersion": "3.3.3",
  "updatedAt": "2021-01-06T08:24:08.075Z",
  "devdoc": {
    "methods": {
      "allowance(address,address)": {
        "details": "See {IBEP20-allowance}."
      },
      "approve(address,uint256)": {
        "details": "See {IBEP20-approve}.     * Requirements:     * - `spender` cannot be the zero address."
      },
      "balanceOf(address)": {
        "details": "See {IBEP20-balanceOf}."
      },
      "decimals()": {
        "details": "Returns the number of decimals used to get its user representation. For example, if `decimals` equals `2`, a balance of `505` tokens should be displayed to a user as `5,05` (`505 / 10 ** 2`).     * Tokens usually opt for a value of 18, imitating the relationship between Ether and Wei. This is the value {BEP20} uses, unless {_setupDecimals} is called.     * NOTE: This information is only used for _display_ purposes: it in no way affects any of the arithmetic of the contract, including {IBEP20-balanceOf} and {IBEP20-transfer}."
      },
      "decreaseAllowance(address,uint256)": {
        "details": "Atomically decreases the allowance granted to `spender` by the caller.     * This is an alternative to {approve} that can be used as a mitigation for problems described in {IBEP20-approve}.     * Emits an {Approval} event indicating the updated allowance.     * Requirements:     * - `spender` cannot be the zero address. - `spender` must have allowance for the caller of at least `subtractedValue`."
      },
      "increaseAllowance(address,uint256)": {
        "details": "Atomically increases the allowance granted to `spender` by the caller.     * This is an alternative to {approve} that can be used as a mitigation for problems described in {IBEP20-approve}.     * Emits an {Approval} event indicating the updated allowance.     * Requirements:     * - `spender` cannot be the zero address."
      },
      "name()": {
        "details": "Returns the name of the token."
      },
      "owner()": {
        "details": "Returns the address of the current owner."
      },
      "renounceOwnership()": {
        "details": "Leaves the contract without owner. It will not be possible to call `onlyOwner` functions anymore. Can only be called by the current owner.     * NOTE: Renouncing ownership will leave the contract without an owner, thereby removing any functionality that is only available to the owner."
      },
      "symbol()": {
        "details": "Returns the symbol of the token, usually a shorter version of the name."
      },
      "totalSupply()": {
        "details": "See {IBEP20-totalSupply}."
      },
      "transfer(address,uint256)": {
        "details": "See {IBEP20-transfer}.     * Requirements:     * - `recipient` cannot be the zero address. - the caller must have a balance of at least `amount`."
      },
      "transferFrom(address,address,uint256)": {
        "details": "See {IBEP20-transferFrom}.     * Emits an {Approval} event indicating the updated allowance. This is not required by the EIP. See the note at the beginning of {BEP20};     * Requirements: - `sender` and `recipient` cannot be the zero address. - `sender` must have a balance of at least `amount`. - the caller must have allowance for ``sender``'s tokens of at least `amount`."
      },
      "transferOwnership(address)": {
        "details": "Transfers ownership of the contract to a new account (`newOwner`). Can only be called by the current owner."
      }
    }
  },
  "userdoc": {
    "methods": {}
  }
}